{"contracts/AviatorGame.sol":{"AviatorGame":{"abi":[{"inputs":[{"internalType":"address","name":"initialOwner","type":"address"},{"internalType":"address","name":"treasuryAddress","type":"address"}],"stateMutability":"nonpayable","type":"constructor"},{"inputs":[{"internalType":"address","name":"owner","type":"address"}],"name":"OwnableInvalidOwner","type":"error"},{"inputs":[{"internalType":"address","name":"account","type":"address"}],"name":"OwnableUnauthorizedAccount","type":"error"},{"anonymous":false,"inputs":[{"indexed":true,"internalType":"address","name":"player","type":"address"},{"indexed":true,"internalType":"uint256","name":"roundId","type":"uint256"},{"indexed":false,"internalType":"uint256","name":"amountWei","type":"uint256"}],"name":"BetPlaced","type":"event"},{"anonymous":false,"inputs":[{"indexed":true,"internalType":"address","name":"player","type":"address"},{"indexed":true,"internalType":"uint256","name":"roundId","type":"uint256"},{"indexed":false,"internalType":"uint256","name":"targetX100","type":"uint256"},{"indexed":false,"internalType":"uint256","name":"payoutWei","type":"uint256"}],"name":"CashOut","type":"event"},{"anonymous":false,"inputs":[{"indexed":false,"internalType":"uint256","name":"newHouseEdgeBps","type":"uint256"}],"name":"HouseEdgeUpdated","type":"event"},{"anonymous":false,"inputs":[{"indexed":true,"internalType":"address","name":"previousOwner","type":"address"},{"indexed":true,"internalType":"address","name":"newOwner","type":"address"}],"name":"OwnershipTransferred","type":"event"},{"anonymous":false,"inputs":[{"indexed":false,"internalType":"address","name":"feed","type":"address"}],"name":"PriceFeedUpdated","type":"event"},{"anonymous":false,"inputs":[{"indexed":false,"internalType":"uint256","name":"baseX100","type":"uint256"},{"indexed":false,"internalType":"uint256","name":"factorPerPct","type":"uint256"},{"indexed":false,"internalType":"uint256","name":"maxMultiplierX100","type":"uint256"},{"indexed":false,"internalType":"uint256","name":"minCashoutX100","type":"uint256"}],"name":"RiskParamsUpdated","type":"event"},{"anonymous":false,"inputs":[{"indexed":true,"internalType":"uint256","name":"roundId","type":"uint256"},{"indexed":false,"internalType":"uint256","name":"crashMultiplierX100","type":"uint256"}],"name":"RoundClosed","type":"event"},{"anonymous":false,"inputs":[{"indexed":true,"internalType":"uint256","name":"roundId","type":"uint256"}],"name":"RoundOpened","type":"event"},{"anonymous":false,"inputs":[{"indexed":false,"internalType":"address","name":"newTreasury","type":"address"}],"name":"TreasuryUpdated","type":"event"},{"inputs":[],"name":"baseX100","outputs":[{"internalType":"uint256","name":"","type":"uint256"}],"stateMutability":"view","type":"function"},{"inputs":[{"internalType":"address","name":"","type":"address"}],"name":"bets","outputs":[{"internalType":"uint256","name":"amountWei","type":"uint256"},{"internalType":"bool","name":"active","type":"bool"}],"stateMutability":"view","type":"function"},{"inputs":[],"name":"bettingOpen","outputs":[{"internalType":"bool","name":"","type":"bool"}],"stateMutability":"view","type":"function"},{"inputs":[{"internalType":"uint256","name":"targetX100","type":"uint256"}],"name":"cashOut","outputs":[],"stateMutability":"nonpayable","type":"function"},{"inputs":[{"internalType":"uint256","name":"volatilityBps","type":"uint256"}],"name":"closeAndSetCrash","outputs":[],"stateMutability":"nonpayable","type":"function"},{"inputs":[],"name":"crashMultiplierX100","outputs":[{"internalType":"uint256","name":"","type":"uint256"}],"stateMutability":"view","type":"function"},{"inputs":[],"name":"currentRoundId","outputs":[{"internalType":"uint256","name":"","type":"uint256"}],"stateMutability":"view","type":"function"},{"inputs":[],"name":"factorPerPct","outputs":[{"internalType":"uint256","name":"","type":"uint256"}],"stateMutability":"view","type":"function"},{"inputs":[],"name":"forfeitOnCrash","outputs":[],"stateMutability":"nonpayable","type":"function"},{"inputs":[],"name":"fund","outputs":[],"stateMutability":"payable","type":"function"},{"inputs":[],"name":"houseEdgeBps","outputs":[{"internalType":"uint256","name":"","type":"uint256"}],"stateMutability":"view","type":"function"},{"inputs":[],"name":"maxMultiplierX100","outputs":[{"internalType":"uint256","name":"","type":"uint256"}],"stateMutability":"view","type":"function"},{"inputs":[],"name":"minCashoutX100","outputs":[{"internalType":"uint256","name":"","type":"uint256"}],"stateMutability":"view","type":"function"},{"inputs":[],"name":"openNextRound","outputs":[],"stateMutability":"nonpayable","type":"function"},{"inputs":[],"name":"owner","outputs":[{"internalType":"address","name":"","type":"address"}],"stateMutability":"view","type":"function"},{"inputs":[],"name":"placeBet","outputs":[],"stateMutability":"payable","type":"function"},{"inputs":[],"name":"priceFeed","outputs":[{"internalType":"contract AggregatorV3Interface","name":"","type":"address"}],"stateMutability":"view","type":"function"},{"inputs":[],"name":"renounceOwnership","outputs":[],"stateMutability":"nonpayable","type":"function"},{"inputs":[],"name":"roundStartPrice","outputs":[{"internalType":"int256","name":"","type":"int256"}],"stateMutability":"view","type":"function"},{"inputs":[],"name":"roundStartTs","outputs":[{"internalType":"uint256","name":"","type":"uint256"}],"stateMutability":"view","type":"function"},{"inputs":[{"internalType":"uint256","name":"newHouseEdgeBps","type":"uint256"}],"name":"setHouseEdge","outputs":[],"stateMutability":"nonpayable","type":"function"},{"inputs":[{"internalType":"address","name":"aggregator","type":"address"}],"name":"setPriceFeed","outputs":[],"stateMutability":"nonpayable","type":"function"},{"inputs":[{"internalType":"uint256","name":"newBaseX100","type":"uint256"},{"internalType":"uint256","name":"newFactorPerPct","type":"uint256"},{"internalType":"uint256","name":"newMaxMultiplierX100","type":"uint256"},{"internalType":"uint256","name":"newMinCashoutX100","type":"uint256"}],"name":"setRiskParams","outputs":[],"stateMutability":"nonpayable","type":"function"},{"inputs":[{"internalType":"address","name":"newTreasury","type":"address"}],"name":"setTreasury","outputs":[],"stateMutability":"nonpayable","type":"function"},{"inputs":[{"internalType":"address","name":"newOwner","type":"address"}],"name":"transferOwnership","outputs":[],"stateMutability":"nonpayable","type":"function"},{"inputs":[],"name":"treasury","outputs":[{"internalType":"address","name":"","type":"address"}],"stateMutability":"view","type":"function"}],"evm":{"bytecode":{"linkReferences":{},"object":"608060405260c860065560646009556014600a55611388600b556082600c553480156200002b57600080fd5b506040516200162a3803806200162a8339810160408190526200004e916200025f565b816001600160a01b0381166200007f57604051631e4fbdf760e01b8152600060048201526024015b60405180910390fd5b6200008a81620000fd565b506001600160a01b038116620000d05760405162461bcd60e51b815260206004820152600a602482015269074726561737572793d360b41b604482015260640162000076565b600780546001600160a01b0319166001600160a01b038316179055620000f56200014d565b50506200032c565b600080546001600160a01b038381166001600160a01b0319831681178455604051919092169283917f8be0079c531659141344cd1fd0a4f28419497f9722a3daafe3b4186f6b6457e09190a35050565b600180600082825462000161919062000297565b909155505060006002556003805460ff19166001179055426004556008546001600160a01b0316156200020e5760085460408051633fabe5a360e21b815290516000926001600160a01b03169163feaf968c9160048083019260a09291908290030181865afa158015620001d9573d6000803e3d6000fd5b505050506040513d601f19601f82011682018060405250810190620001ff9190620002d7565b50505060055550620002149050565b60006005555b6001546040517ff5d5acf597a5f9d06a24389ebea67f576c74da4d4a73b97a5dfac2452acad64790600090a2565b80516001600160a01b03811681146200025a57600080fd5b919050565b600080604083850312156200027357600080fd5b6200027e8362000242565b91506200028e6020840162000242565b90509250929050565b80820180821115620002b957634e487b7160e01b600052601160045260246000fd5b92915050565b80516001600160501b03811681146200025a57600080fd5b600080600080600060a08688031215620002f057600080fd5b620002fb86620002bf565b94506020860151935060408601519250606086015191506200032060808701620002bf565b90509295509295909350565b6112ee806200033c6000396000f3fe6080604052600436106101805760003560e01c80638da5cb5b116100d1578063dfa5b02f1161008a578063f2fde38b11610064578063f2fde38b14610416578063f90f456014610436578063fcee01a61461043e578063ff4f8e8f1461045357600080fd5b8063dfa5b02f146103cb578063ec67a8e2146103e0578063f0f44260146103f657600080fd5b80638da5cb5b1461034b5780639bd9cf16146103695780639cbe5efd1461037f578063b09419ac14610395578063b60d428814610250578063d7376af3146103ab57600080fd5b80635c7b79f51161013e578063715018a611610118578063715018a6146102aa578063724e78da146102bf578063741bef1a146102df57806389a78f1a146102ff57600080fd5b80635c7b79f51461023057806361d027b3146102525780636cd0f1021461028a57600080fd5b80629984211461018557806315b19770146101ae57806316e70fce146101d85780631bbfd67b146101ee5780633acfa74c1461020457806350263caf1461021a575b600080fd5b34801561019157600080fd5b5061019b60065481565b6040519081526020015b60405180910390f35b3480156101ba57600080fd5b506003546101c89060ff1681565b60405190151581526020016101a5565b3480156101e457600080fd5b5061019b600b5481565b3480156101fa57600080fd5b5061019b60045481565b34801561021057600080fd5b5061019b600a5481565b34801561022657600080fd5b5061019b600c5481565b34801561023c57600080fd5b5061025061024b36600461106e565b610473565b005b34801561025e57600080fd5b50600754610272906001600160a01b031681565b6040516001600160a01b0390911681526020016101a5565b34801561029657600080fd5b506102506102a536600461106e565b610756565b3480156102b657600080fd5b506102506107dc565b3480156102cb57600080fd5b506102506102da366004611087565b6107f0565b3480156102eb57600080fd5b50600854610272906001600160a01b031681565b34801561030b57600080fd5b5061033661031a366004611087565b600d602052600090815260409020805460019091015460ff1682565b604080519283529015156020830152016101a5565b34801561035757600080fd5b506000546001600160a01b0316610272565b34801561037557600080fd5b5061019b60025481565b34801561038b57600080fd5b5061019b60015481565b3480156103a157600080fd5b5061019b60055481565b3480156103b757600080fd5b506102506103c63660046110b7565b610846565b3480156103d757600080fd5b50610250610969565b3480156103ec57600080fd5b5061019b60095481565b34801561040257600080fd5b50610250610411366004611087565b610a48565b34801561042257600080fd5b50610250610431366004611087565b610ae1565b610250610b1f565b34801561044a57600080fd5b50610250610c3a565b34801561045f57600080fd5b5061025061046e36600461106e565b610c8b565b60035460ff16156104b85760405162461bcd60e51b815260206004820152600a602482015269726f756e64206c69766560b01b60448201526064015b60405180910390fd5b6000600254116104f95760405162461bcd60e51b815260206004820152600c60248201526b1b9bc818dc985cda081e595d60a21b60448201526064016104af565b336000908152600d60205260409020600181015460ff166105455760405162461bcd60e51b81526020600482015260066024820152651b9bc818995d60d21b60448201526064016104af565b600c54821015801561055957506002548211155b6105925760405162461bcd60e51b815260206004820152600a602482015269189859081d185c99d95d60b21b60448201526064016104af565b600060648383600001546105a691906110ff565b6105b09190611132565b90506000612710600654836105c591906110ff565b6105cf9190611132565b905060006105dd8284611146565b60018501805460ff19169055600085559050811561068a576007546040516000916001600160a01b03169084908381818185875af1925050503d8060008114610642576040519150601f19603f3d011682016040523d82523d6000602084013e610647565b606091505b50509050806106885760405162461bcd60e51b815260206004820152600d60248201526c199959481cd95b990819985a5b609a1b60448201526064016104af565b505b604051600090339083908381818185875af1925050503d80600081146106cc576040519150601f19603f3d011682016040523d82523d6000602084013e6106d1565b606091505b50509050806107105760405162461bcd60e51b815260206004820152600b60248201526a1c185e5bdd5d0819985a5b60aa1b60448201526064016104af565b600154604080518881526020810185905233917f3d11e49d17dc6f1c19377a813db1fc78fa3b3f0324051794e9a361b5b7e434c0910160405180910390a3505050505050565b61075e610f03565b6103e88111156107a05760405162461bcd60e51b815260206004820152600d60248201526c0cac8ceca40e8dede40d0d2ced609b1b60448201526064016104af565b60068190556040518181527f5082c314f0d5d410c0175820fe02f58a21198fde20ddb6e65c96825cadab67a8906020015b60405180910390a150565b6107e4610f03565b6107ee6000610f30565b565b6107f8610f03565b600880546001600160a01b0319166001600160a01b0383169081179091556040519081527fe5b20b8497e4f3e2435ef9c20e2e26b47497ee13745ce1c681ad6640653119e6906020016107d1565b61084e610f03565b606484101561088d5760405162461bcd60e51b815260206004820152600b60248201526a0c4c2e6ca7c7a625c6060f60ab1b60448201526064016104af565b838210156108c95760405162461bcd60e51b81526020600482015260096024820152686d61783e3d6261736560b81b60448201526064016104af565b60658110156109075760405162461bcd60e51b815260206004820152600a6024820152690dad2dc7c7a625c6062f60b31b60448201526064016104af565b6009849055600a839055600b829055600c8190556040805185815260208101859052908101839052606081018290527f5d3c7b528485e17fe0314971648177a48225c729bb2270e5426ad03876eb08899060800160405180910390a150505050565b60035460ff16156109a95760405162461bcd60e51b815260206004820152600a602482015269726f756e64206c69766560b01b60448201526064016104af565b6000600254116109ea5760405162461bcd60e51b815260206004820152600c60248201526b1b9bc818dc985cda081e595d60a21b60448201526064016104af565b336000908152600d60205260409020600181015460ff16610a365760405162461bcd60e51b81526020600482015260066024820152651b9bc818995d60d21b60448201526064016104af565b60018101805460ff1916905560009055565b610a50610f03565b6001600160a01b038116610a935760405162461bcd60e51b815260206004820152600a602482015269074726561737572793d360b41b60448201526064016104af565b600780546001600160a01b0319166001600160a01b0383169081179091556040519081527f7dae230f18360d76a040c81f050aa14eb9d6dc7901b20fc5d855e2a20fe814d1906020016107d1565b610ae9610f03565b6001600160a01b038116610b1357604051631e4fbdf760e01b8152600060048201526024016104af565b610b1c81610f30565b50565b60035460ff16610b625760405162461bcd60e51b815260206004820152600e60248201526d18995d1d1a5b99c818db1bdcd95960921b60448201526064016104af565b60003411610b9d5760405162461bcd60e51b81526020600482015260086024820152676e6f2076616c756560c01b60448201526064016104af565b336000908152600d60205260409020600181015460ff1615610bee5760405162461bcd60e51b815260206004820152600a6024820152696265742065786973747360b01b60448201526064016104af565b348082556001808301805460ff191682179055546040519182529033907e1ecf1d0c4d22f324b3ecb9cdf0e5f772bc74ac104e6626f4b3845433d031059060200160405180910390a350565b610c42610f03565b60035460ff1615610c835760405162461bcd60e51b815260206004820152600b60248201526a18db1bdcd948199a5c9cdd60aa1b60448201526064016104af565b6107ee610f80565b610c93610f03565b60035460ff16610cd65760405162461bcd60e51b815260206004820152600e60248201526d185b1c9958591e4818db1bdcd95960921b60448201526064016104af565b6003805460ff191690556009546008546001600160a01b031615801590610cfe575060055415155b15610df15760085460408051633fabe5a360e21b815290516000926001600160a01b03169163feaf968c9160048083019260a09291908290030181865afa158015610d4d573d6000803e3d6000fd5b505050506040513d601f19601f82011682018060405250810190610d719190611178565b505060055491935090915060009050610d8a82846111c8565b90506000811215610da157610d9e816111ef565b90505b6000808313610db1576001610db3565b825b610dbf836127106110ff565b610dc99190611132565b9050600a5481610dd991906110ff565b600954610de6919061120b565b945050505050610e1b565b6064600a5483610e0191906110ff565b610e0b9190611132565b600954610e18919061120b565b90505b6000612af84442600154604051602001610e48939291909283526020830191909152604082015260600190565b6040516020818303038152906040528051906020012060001c610e6b919061121e565b90506000610e7b611388836111c8565b90506000620186a0610e8d8386611232565b610e979190611262565b610ea19085611290565b9050600c54811215610eb25750600c545b600b54811315610ec15750600b545b60028190556001546040518281527fc67dda8e11f1aa941c7e74466b1859a07a32f46aaf641d29b83be348424d93cd9060200160405180910390a25050505050565b6000546001600160a01b031633146107ee5760405163118cdaa760e01b81523360048201526024016104af565b600080546001600160a01b038381166001600160a01b0319831681178455604051919092169283917f8be0079c531659141344cd1fd0a4f28419497f9722a3daafe3b4186f6b6457e09190a35050565b6001806000828254610f92919061120b565b909155505060006002556003805460ff19166001179055426004556008546001600160a01b03161561103a5760085460408051633fabe5a360e21b815290516000926001600160a01b03169163feaf968c9160048083019260a09291908290030181865afa158015611008573d6000803e3d6000fd5b505050506040513d601f19601f8201168201806040525081019061102c9190611178565b505050600555506110409050565b60006005555b6001546040517ff5d5acf597a5f9d06a24389ebea67f576c74da4d4a73b97a5dfac2452acad64790600090a2565b60006020828403121561108057600080fd5b5035919050565b60006020828403121561109957600080fd5b81356001600160a01b03811681146110b057600080fd5b9392505050565b600080600080608085870312156110cd57600080fd5b5050823594602084013594506040840135936060013592509050565b634e487b7160e01b600052601160045260246000fd5b8082028115828204841417611116576111166110e9565b92915050565b634e487b7160e01b600052601260045260246000fd5b6000826111415761114161111c565b500490565b81810381811115611116576111166110e9565b805169ffffffffffffffffffff8116811461117357600080fd5b919050565b600080600080600060a0868803121561119057600080fd5b61119986611159565b94506020860151935060408601519250606086015191506111bc60808701611159565b90509295509295909350565b81810360008312801583831316838312821617156111e8576111e86110e9565b5092915050565b6000600160ff1b8201611204576112046110e9565b5060000390565b80820180821115611116576111166110e9565b60008261122d5761122d61111c565b500690565b80820260008212600160ff1b8414161561124e5761124e6110e9565b8181058314821517611116576111166110e9565b6000826112715761127161111c565b600160ff1b82146000198414161561128b5761128b6110e9565b500590565b80820182811260008312801582168215821617156112b0576112b06110e9565b50509291505056fea26469706673582212207ce12781f3fb54942f2691cd6b6a3eb55f18a7914cb2639c182a9bd9e6a2ac8864736f6c63430008140033","opcodes":"PUSH1 0x80 PUSH1 0x40 MSTORE PUSH1 0xC8 PUSH1 0x6 SSTORE PUSH1 0x64 PUSH1 0x9 SSTORE PUSH1 0x14 PUSH1 0xA SSTORE PUSH2 0x1388 PUSH1 0xB SSTORE PUSH1 0x82 PUSH1 0xC SSTORE CALLVALUE DUP1 ISZERO PUSH3 0x2B JUMPI PUSH1 0x0 DUP1 REVERT JUMPDEST POP PUSH1 0x40 MLOAD PUSH3 0x162A CODESIZE SUB DUP1 PUSH3 0x162A DUP4 CODECOPY DUP2 ADD PUSH1 0x40 DUP2 SWAP1 MSTORE PUSH3 0x4E SWAP2 PUSH3 0x25F JUMP JUMPDEST DUP2 PUSH1 0x1 PUSH1 0x1 PUSH1 0xA0 SHL SUB DUP2 AND PUSH3 0x7F JUMPI PUSH1 0x40 MLOAD PUSH4 0x1E4FBDF7 PUSH1 0xE0 SHL DUP2 MSTORE PUSH1 0x0 PUSH1 0x4 DUP3 ADD MSTORE PUSH1 0x24 ADD JUMPDEST PUSH1 0x40 MLOAD DUP1 SWAP2 SUB SWAP1 REVERT JUMPDEST PUSH3 0x8A DUP2 PUSH3 0xFD JUMP JUMPDEST POP PUSH1 0x1 PUSH1 0x1 PUSH1 0xA0 SHL SUB DUP2 AND PUSH3 0xD0 JUMPI PUSH1 0x40 MLOAD PUSH3 0x461BCD PUSH1 0xE5 SHL DUP2 MSTORE PUSH1 0x20 PUSH1 0x4 DUP3 ADD MSTORE PUSH1 0xA PUSH1 0x24 DUP3 ADD MSTORE PUSH10 0x74726561737572793D3 PUSH1 0xB4 SHL PUSH1 0x44 DUP3 ADD MSTORE PUSH1 0x64 ADD PUSH3 0x76 JUMP JUMPDEST PUSH1 0x7 DUP1 SLOAD PUSH1 0x1 PUSH1 0x1 PUSH1 0xA0 SHL SUB NOT AND PUSH1 0x1 PUSH1 0x1 PUSH1 0xA0 SHL SUB DUP4 AND OR SWAP1 SSTORE PUSH3 0xF5 PUSH3 0x14D JUMP JUMPDEST POP POP PUSH3 0x32C JUMP JUMPDEST PUSH1 0x0 DUP1 SLOAD PUSH1 0x1 PUSH1 0x1 PUSH1 0xA0 SHL SUB DUP4 DUP2 AND PUSH1 0x1 PUSH1 0x1 PUSH1 0xA0 SHL SUB NOT DUP4 AND DUP2 OR DUP5 SSTORE PUSH1 0x40 MLOAD SWAP2 SWAP1 SWAP3 AND SWAP3 DUP4 SWAP2 PUSH32 0x8BE0079C531659141344CD1FD0A4F28419497F9722A3DAAFE3B4186F6B6457E0 SWAP2 SWAP1 LOG3 POP POP JUMP JUMPDEST PUSH1 0x1 DUP1 PUSH1 0x0 DUP3 DUP3 SLOAD PUSH3 0x161 SWAP2 SWAP1 PUSH3 0x297 JUMP JUMPDEST SWAP1 SWAP2 SSTORE POP POP PUSH1 0x0 PUSH1 0x2 SSTORE PUSH1 0x3 DUP1 SLOAD PUSH1 0xFF NOT AND PUSH1 0x1 OR SWAP1 SSTORE TIMESTAMP PUSH1 0x4 SSTORE PUSH1 0x8 SLOAD PUSH1 0x1 PUSH1 0x1 PUSH1 0xA0 SHL SUB AND ISZERO PUSH3 0x20E JUMPI PUSH1 0x8 SLOAD PUSH1 0x40 DUP1 MLOAD PUSH4 0x3FABE5A3 PUSH1 0xE2 SHL DUP2 MSTORE SWAP1 MLOAD PUSH1 0x0 SWAP3 PUSH1 0x1 PUSH1 0x1 PUSH1 0xA0 SHL SUB AND SWAP2 PUSH4 0xFEAF968C SWAP2 PUSH1 0x4 DUP1 DUP4 ADD SWAP3 PUSH1 0xA0 SWAP3 SWAP2 SWAP1 DUP3 SWAP1 SUB ADD DUP2 DUP7 GAS STATICCALL ISZERO DUP1 ISZERO PUSH3 0x1D9 JUMPI RETURNDATASIZE PUSH1 0x0 DUP1 RETURNDATACOPY RETURNDATASIZE PUSH1 0x0 REVERT JUMPDEST POP POP POP POP PUSH1 0x40 MLOAD RETURNDATASIZE PUSH1 0x1F NOT PUSH1 0x1F DUP3 ADD AND DUP3 ADD DUP1 PUSH1 0x40 MSTORE POP DUP2 ADD SWAP1 PUSH3 0x1FF SWAP2 SWAP1 PUSH3 0x2D7 JUMP JUMPDEST POP POP POP PUSH1 0x5 SSTORE POP PUSH3 0x214 SWAP1 POP JUMP JUMPDEST PUSH1 0x0 PUSH1 0x5 SSTORE JUMPDEST PUSH1 0x1 SLOAD PUSH1 0x40 MLOAD PUSH32 0xF5D5ACF597A5F9D06A24389EBEA67F576C74DA4D4A73B97A5DFAC2452ACAD647 SWAP1 PUSH1 0x0 SWAP1 LOG2 JUMP JUMPDEST DUP1 MLOAD PUSH1 0x1 PUSH1 0x1 PUSH1 0xA0 SHL SUB DUP2 AND DUP2 EQ PUSH3 0x25A JUMPI PUSH1 0x0 DUP1 REVERT JUMPDEST SWAP2 SWAP1 POP JUMP JUMPDEST PUSH1 0x0 DUP1 PUSH1 0x40 DUP4 DUP6 SUB SLT ISZERO PUSH3 0x273 JUMPI PUSH1 0x0 DUP1 REVERT JUMPDEST PUSH3 0x27E DUP4 PUSH3 0x242 JUMP JUMPDEST SWAP2 POP PUSH3 0x28E PUSH1 0x20 DUP5 ADD PUSH3 0x242 JUMP JUMPDEST SWAP1 POP SWAP3 POP SWAP3 SWAP1 POP JUMP JUMPDEST DUP1 DUP3 ADD DUP1 DUP3 GT ISZERO PUSH3 0x2B9 JUMPI PUSH4 0x4E487B71 PUSH1 0xE0 SHL PUSH1 0x0 MSTORE PUSH1 0x11 PUSH1 0x4 MSTORE PUSH1 0x24 PUSH1 0x0 REVERT JUMPDEST SWAP3 SWAP2 POP POP JUMP JUMPDEST DUP1 MLOAD PUSH1 0x1 PUSH1 0x1 PUSH1 0x50 SHL SUB DUP2 AND DUP2 EQ PUSH3 0x25A JUMPI PUSH1 0x0 DUP1 REVERT JUMPDEST PUSH1 0x0 DUP1 PUSH1 0x0 DUP1 PUSH1 0x0 PUSH1 0xA0 DUP7 DUP9 SUB SLT ISZERO PUSH3 0x2F0 JUMPI PUSH1 0x0 DUP1 REVERT JUMPDEST PUSH3 0x2FB DUP7 PUSH3 0x2BF JUMP JUMPDEST SWAP5 POP PUSH1 0x20 DUP7 ADD MLOAD SWAP4 POP PUSH1 0x40 DUP7 ADD MLOAD SWAP3 POP PUSH1 0x60 DUP7 ADD MLOAD SWAP2 POP PUSH3 0x320 PUSH1 0x80 DUP8 ADD PUSH3 0x2BF JUMP JUMPDEST SWAP1 POP SWAP3 SWAP6 POP SWAP3 SWAP6 SWAP1 SWAP4 POP JUMP JUMPDEST PUSH2 0x12EE DUP1 PUSH3 0x33C PUSH1 0x0 CODECOPY PUSH1 0x0 RETURN INVALID PUSH1 0x80 PUSH1 0x40 MSTORE PUSH1 0x4 CALLDATASIZE LT PUSH2 0x180 JUMPI PUSH1 0x0 CALLDATALOAD PUSH1 0xE0 SHR DUP1 PUSH4 0x8DA5CB5B GT PUSH2 0xD1 JUMPI DUP1 PUSH4 0xDFA5B02F GT PUSH2 0x8A JUMPI DUP1 PUSH4 0xF2FDE38B GT PUSH2 0x64 JUMPI DUP1 PUSH4 0xF2FDE38B EQ PUSH2 0x416 JUMPI DUP1 PUSH4 0xF90F4560 EQ PUSH2 0x436 JUMPI DUP1 PUSH4 0xFCEE01A6 EQ PUSH2 0x43E JUMPI DUP1 PUSH4 0xFF4F8E8F EQ PUSH2 0x453 JUMPI PUSH1 0x0 DUP1 REVERT JUMPDEST DUP1 PUSH4 0xDFA5B02F EQ PUSH2 0x3CB JUMPI DUP1 PUSH4 0xEC67A8E2 EQ PUSH2 0x3E0 JUMPI DUP1 PUSH4 0xF0F44260 EQ PUSH2 0x3F6 JUMPI PUSH1 0x0 DUP1 REVERT JUMPDEST DUP1 PUSH4 0x8DA5CB5B EQ PUSH2 0x34B JUMPI DUP1 PUSH4 0x9BD9CF16 EQ PUSH2 0x369 JUMPI DUP1 PUSH4 0x9CBE5EFD EQ PUSH2 0x37F JUMPI DUP1 PUSH4 0xB09419AC EQ PUSH2 0x395 JUMPI DUP1 PUSH4 0xB60D4288 EQ PUSH2 0x250 JUMPI DUP1 PUSH4 0xD7376AF3 EQ PUSH2 0x3AB JUMPI PUSH1 0x0 DUP1 REVERT JUMPDEST DUP1 PUSH4 0x5C7B79F5 GT PUSH2 0x13E JUMPI DUP1 PUSH4 0x715018A6 GT PUSH2 0x118 JUMPI DUP1 PUSH4 0x715018A6 EQ PUSH2 0x2AA JUMPI DUP1 PUSH4 0x724E78DA EQ PUSH2 0x2BF JUMPI DUP1 PUSH4 0x741BEF1A EQ PUSH2 0x2DF JUMPI DUP1 PUSH4 0x89A78F1A EQ PUSH2 0x2FF JUMPI PUSH1 0x0 DUP1 REVERT JUMPDEST DUP1 PUSH4 0x5C7B79F5 EQ PUSH2 0x230 JUMPI DUP1 PUSH4 0x61D027B3 EQ PUSH2 0x252 JUMPI DUP1 PUSH4 0x6CD0F102 EQ PUSH2 0x28A JUMPI PUSH1 0x0 DUP1 REVERT JUMPDEST DUP1 PUSH3 0x998421 EQ PUSH2 0x185 JUMPI DUP1 PUSH4 0x15B19770 EQ PUSH2 0x1AE JUMPI DUP1 PUSH4 0x16E70FCE EQ PUSH2 0x1D8 JUMPI DUP1 PUSH4 0x1BBFD67B EQ PUSH2 0x1EE JUMPI DUP1 PUSH4 0x3ACFA74C EQ PUSH2 0x204 JUMPI DUP1 PUSH4 0x50263CAF EQ PUSH2 0x21A JUMPI JUMPDEST PUSH1 0x0 DUP1 REVERT JUMPDEST CALLVALUE DUP1 ISZERO PUSH2 0x191 JUMPI PUSH1 0x0 DUP1 REVERT JUMPDEST POP PUSH2 0x19B PUSH1 0x6 SLOAD DUP2 JUMP JUMPDEST PUSH1 0x40 MLOAD SWAP1 DUP2 MSTORE PUSH1 0x20 ADD JUMPDEST PUSH1 0x40 MLOAD DUP1 SWAP2 SUB SWAP1 RETURN JUMPDEST CALLVALUE DUP1 ISZERO PUSH2 0x1BA JUMPI PUSH1 0x0 DUP1 REVERT JUMPDEST POP PUSH1 0x3 SLOAD PUSH2 0x1C8 SWAP1 PUSH1 0xFF AND DUP2 JUMP JUMPDEST PUSH1 0x40 MLOAD SWAP1 ISZERO ISZERO DUP2 MSTORE PUSH1 0x20 ADD PUSH2 0x1A5 JUMP JUMPDEST CALLVALUE DUP1 ISZERO PUSH2 0x1E4 JUMPI PUSH1 0x0 DUP1 REVERT JUMPDEST POP PUSH2 0x19B PUSH1 0xB SLOAD DUP2 JUMP JUMPDEST CALLVALUE DUP1 ISZERO PUSH2 0x1FA JUMPI PUSH1 0x0 DUP1 REVERT JUMPDEST POP PUSH2 0x19B PUSH1 0x4 SLOAD DUP2 JUMP JUMPDEST CALLVALUE DUP1 ISZERO PUSH2 0x210 JUMPI PUSH1 0x0 DUP1 REVERT JUMPDEST POP PUSH2 0x19B PUSH1 0xA SLOAD DUP2 JUMP JUMPDEST CALLVALUE DUP1 ISZERO PUSH2 0x226 JUMPI PUSH1 0x0 DUP1 REVERT JUMPDEST POP PUSH2 0x19B PUSH1 0xC SLOAD DUP2 JUMP JUMPDEST CALLVALUE DUP1 ISZERO PUSH2 0x23C JUMPI PUSH1 0x0 DUP1 REVERT JUMPDEST POP PUSH2 0x250 PUSH2 0x24B CALLDATASIZE PUSH1 0x4 PUSH2 0x106E JUMP JUMPDEST PUSH2 0x473 JUMP JUMPDEST STOP JUMPDEST CALLVALUE DUP1 ISZERO PUSH2 0x25E JUMPI PUSH1 0x0 DUP1 REVERT JUMPDEST POP PUSH1 0x7 SLOAD PUSH2 0x272 SWAP1 PUSH1 0x1 PUSH1 0x1 PUSH1 0xA0 SHL SUB AND DUP2 JUMP JUMPDEST PUSH1 0x40 MLOAD PUSH1 0x1 PUSH1 0x1 PUSH1 0xA0 SHL SUB SWAP1 SWAP2 AND DUP2 MSTORE PUSH1 0x20 ADD PUSH2 0x1A5 JUMP JUMPDEST CALLVALUE DUP1 ISZERO PUSH2 0x296 JUMPI PUSH1 0x0 DUP1 REVERT JUMPDEST POP PUSH2 0x250 PUSH2 0x2A5 CALLDATASIZE PUSH1 0x4 PUSH2 0x106E JUMP JUMPDEST PUSH2 0x756 JUMP JUMPDEST CALLVALUE DUP1 ISZERO PUSH2 0x2B6 JUMPI PUSH1 0x0 DUP1 REVERT JUMPDEST POP PUSH2 0x250 PUSH2 0x7DC JUMP JUMPDEST CALLVALUE DUP1 ISZERO PUSH2 0x2CB JUMPI PUSH1 0x0 DUP1 REVERT JUMPDEST POP PUSH2 0x250 PUSH2 0x2DA CALLDATASIZE PUSH1 0x4 PUSH2 0x1087 JUMP JUMPDEST PUSH2 0x7F0 JUMP JUMPDEST CALLVALUE DUP1 ISZERO PUSH2 0x2EB JUMPI PUSH1 0x0 DUP1 REVERT JUMPDEST POP PUSH1 0x8 SLOAD PUSH2 0x272 SWAP1 PUSH1 0x1 PUSH1 0x1 PUSH1 0xA0 SHL SUB AND DUP2 JUMP JUMPDEST CALLVALUE DUP1 ISZERO PUSH2 0x30B JUMPI PUSH1 0x0 DUP1 REVERT JUMPDEST POP PUSH2 0x336 PUSH2 0x31A CALLDATASIZE PUSH1 0x4 PUSH2 0x1087 JUMP JUMPDEST PUSH1 0xD PUSH1 0x20 MSTORE PUSH1 0x0 SWAP1 DUP2 MSTORE PUSH1 0x40 SWAP1 KECCAK256 DUP1 SLOAD PUSH1 0x1 SWAP1 SWAP2 ADD SLOAD PUSH1 0xFF AND DUP3 JUMP JUMPDEST PUSH1 0x40 DUP1 MLOAD SWAP3 DUP4 MSTORE SWAP1 ISZERO ISZERO PUSH1 0x20 DUP4 ADD MSTORE ADD PUSH2 0x1A5 JUMP JUMPDEST CALLVALUE DUP1 ISZERO PUSH2 0x357 JUMPI PUSH1 0x0 DUP1 REVERT JUMPDEST POP PUSH1 0x0 SLOAD PUSH1 0x1 PUSH1 0x1 PUSH1 0xA0 SHL SUB AND PUSH2 0x272 JUMP JUMPDEST CALLVALUE DUP1 ISZERO PUSH2 0x375 JUMPI PUSH1 0x0 DUP1 REVERT JUMPDEST POP PUSH2 0x19B PUSH1 0x2 SLOAD DUP2 JUMP JUMPDEST CALLVALUE DUP1 ISZERO PUSH2 0x38B JUMPI PUSH1 0x0 DUP1 REVERT JUMPDEST POP PUSH2 0x19B PUSH1 0x1 SLOAD DUP2 JUMP JUMPDEST CALLVALUE DUP1 ISZERO PUSH2 0x3A1 JUMPI PUSH1 0x0 DUP1 REVERT JUMPDEST POP PUSH2 0x19B PUSH1 0x5 SLOAD DUP2 JUMP JUMPDEST CALLVALUE DUP1 ISZERO PUSH2 0x3B7 JUMPI PUSH1 0x0 DUP1 REVERT JUMPDEST POP PUSH2 0x250 PUSH2 0x3C6 CALLDATASIZE PUSH1 0x4 PUSH2 0x10B7 JUMP JUMPDEST PUSH2 0x846 JUMP JUMPDEST CALLVALUE DUP1 ISZERO PUSH2 0x3D7 JUMPI PUSH1 0x0 DUP1 REVERT JUMPDEST POP PUSH2 0x250 PUSH2 0x969 JUMP JUMPDEST CALLVALUE DUP1 ISZERO PUSH2 0x3EC JUMPI PUSH1 0x0 DUP1 REVERT JUMPDEST POP PUSH2 0x19B PUSH1 0x9 SLOAD DUP2 JUMP JUMPDEST CALLVALUE DUP1 ISZERO PUSH2 0x402 JUMPI PUSH1 0x0 DUP1 REVERT JUMPDEST POP PUSH2 0x250 PUSH2 0x411 CALLDATASIZE PUSH1 0x4 PUSH2 0x1087 JUMP JUMPDEST PUSH2 0xA48 JUMP JUMPDEST CALLVALUE DUP1 ISZERO PUSH2 0x422 JUMPI PUSH1 0x0 DUP1 REVERT JUMPDEST POP PUSH2 0x250 PUSH2 0x431 CALLDATASIZE PUSH1 0x4 PUSH2 0x1087 JUMP JUMPDEST PUSH2 0xAE1 JUMP JUMPDEST PUSH2 0x250 PUSH2 0xB1F JUMP JUMPDEST CALLVALUE DUP1 ISZERO PUSH2 0x44A JUMPI PUSH1 0x0 DUP1 REVERT JUMPDEST POP PUSH2 0x250 PUSH2 0xC3A JUMP JUMPDEST CALLVALUE DUP1 ISZERO PUSH2 0x45F JUMPI PUSH1 0x0 DUP1 REVERT JUMPDEST POP PUSH2 0x250 PUSH2 0x46E CALLDATASIZE PUSH1 0x4 PUSH2 0x106E JUMP JUMPDEST PUSH2 0xC8B JUMP JUMPDEST PUSH1 0x3 SLOAD PUSH1 0xFF AND ISZERO PUSH2 0x4B8 JUMPI PUSH1 0x40 MLOAD PUSH3 0x461BCD PUSH1 0xE5 SHL DUP2 MSTORE PUSH1 0x20 PUSH1 0x4 DUP3 ADD MSTORE PUSH1 0xA PUSH1 0x24 DUP3 ADD MSTORE PUSH10 0x726F756E64206C697665 PUSH1 0xB0 SHL PUSH1 0x44 DUP3 ADD MSTORE PUSH1 0x64 ADD JUMPDEST PUSH1 0x40 MLOAD DUP1 SWAP2 SUB SWAP1 REVERT JUMPDEST PUSH1 0x0 PUSH1 0x2 SLOAD GT PUSH2 0x4F9 JUMPI PUSH1 0x40 MLOAD PUSH3 0x461BCD PUSH1 0xE5 SHL DUP2 MSTORE PUSH1 0x20 PUSH1 0x4 DUP3 ADD MSTORE PUSH1 0xC PUSH1 0x24 DUP3 ADD MSTORE PUSH12 0x1B9BC818DC985CDA081E595D PUSH1 0xA2 SHL PUSH1 0x44 DUP3 ADD MSTORE PUSH1 0x64 ADD PUSH2 0x4AF JUMP JUMPDEST CALLER PUSH1 0x0 SWAP1 DUP2 MSTORE PUSH1 0xD PUSH1 0x20 MSTORE PUSH1 0x40 SWAP1 KECCAK256 PUSH1 0x1 DUP2 ADD SLOAD PUSH1 0xFF AND PUSH2 0x545 JUMPI PUSH1 0x40 MLOAD PUSH3 0x461BCD PUSH1 0xE5 SHL DUP2 MSTORE PUSH1 0x20 PUSH1 0x4 DUP3 ADD MSTORE PUSH1 0x6 PUSH1 0x24 DUP3 ADD MSTORE PUSH6 0x1B9BC818995D PUSH1 0xD2 SHL PUSH1 0x44 DUP3 ADD MSTORE PUSH1 0x64 ADD PUSH2 0x4AF JUMP JUMPDEST PUSH1 0xC SLOAD DUP3 LT ISZERO DUP1 ISZERO PUSH2 0x559 JUMPI POP PUSH1 0x2 SLOAD DUP3 GT ISZERO JUMPDEST PUSH2 0x592 JUMPI PUSH1 0x40 MLOAD PUSH3 0x461BCD PUSH1 0xE5 SHL DUP2 MSTORE PUSH1 0x20 PUSH1 0x4 DUP3 ADD MSTORE PUSH1 0xA PUSH1 0x24 DUP3 ADD MSTORE PUSH10 0x189859081D185C99D95D PUSH1 0xB2 SHL PUSH1 0x44 DUP3 ADD MSTORE PUSH1 0x64 ADD PUSH2 0x4AF JUMP JUMPDEST PUSH1 0x0 PUSH1 0x64 DUP4 DUP4 PUSH1 0x0 ADD SLOAD PUSH2 0x5A6 SWAP2 SWAP1 PUSH2 0x10FF JUMP JUMPDEST PUSH2 0x5B0 SWAP2 SWAP1 PUSH2 0x1132 JUMP JUMPDEST SWAP1 POP PUSH1 0x0 PUSH2 0x2710 PUSH1 0x6 SLOAD DUP4 PUSH2 0x5C5 SWAP2 SWAP1 PUSH2 0x10FF JUMP JUMPDEST PUSH2 0x5CF SWAP2 SWAP1 PUSH2 0x1132 JUMP JUMPDEST SWAP1 POP PUSH1 0x0 PUSH2 0x5DD DUP3 DUP5 PUSH2 0x1146 JUMP JUMPDEST PUSH1 0x1 DUP6 ADD DUP1 SLOAD PUSH1 0xFF NOT AND SWAP1 SSTORE PUSH1 0x0 DUP6 SSTORE SWAP1 POP DUP2 ISZERO PUSH2 0x68A JUMPI PUSH1 0x7 SLOAD PUSH1 0x40 MLOAD PUSH1 0x0 SWAP2 PUSH1 0x1 PUSH1 0x1 PUSH1 0xA0 SHL SUB AND SWAP1 DUP5 SWAP1 DUP4 DUP2 DUP2 DUP2 DUP6 DUP8 GAS CALL SWAP3 POP POP POP RETURNDATASIZE DUP1 PUSH1 0x0 DUP2 EQ PUSH2 0x642 JUMPI PUSH1 0x40 MLOAD SWAP2 POP PUSH1 0x1F NOT PUSH1 0x3F RETURNDATASIZE ADD AND DUP3 ADD PUSH1 0x40 MSTORE RETURNDATASIZE DUP3 MSTORE RETURNDATASIZE PUSH1 0x0 PUSH1 0x20 DUP5 ADD RETURNDATACOPY PUSH2 0x647 JUMP JUMPDEST PUSH1 0x60 SWAP2 POP JUMPDEST POP POP SWAP1 POP DUP1 PUSH2 0x688 JUMPI PUSH1 0x40 MLOAD PUSH3 0x461BCD PUSH1 0xE5 SHL DUP2 MSTORE PUSH1 0x20 PUSH1 0x4 DUP3 ADD MSTORE PUSH1 0xD PUSH1 0x24 DUP3 ADD MSTORE PUSH13 0x199959481CD95B990819985A5B PUSH1 0x9A SHL PUSH1 0x44 DUP3 ADD MSTORE PUSH1 0x64 ADD PUSH2 0x4AF JUMP JUMPDEST POP JUMPDEST PUSH1 0x40 MLOAD PUSH1 0x0 SWAP1 CALLER SWAP1 DUP4 SWAP1 DUP4 DUP2 DUP2 DUP2 DUP6 DUP8 GAS CALL SWAP3 POP POP POP RETURNDATASIZE DUP1 PUSH1 0x0 DUP2 EQ PUSH2 0x6CC JUMPI PUSH1 0x40 MLOAD SWAP2 POP PUSH1 0x1F NOT PUSH1 0x3F RETURNDATASIZE ADD AND DUP3 ADD PUSH1 0x40 MSTORE RETURNDATASIZE DUP3 MSTORE RETURNDATASIZE PUSH1 0x0 PUSH1 0x20 DUP5 ADD RETURNDATACOPY PUSH2 0x6D1 JUMP JUMPDEST PUSH1 0x60 SWAP2 POP JUMPDEST POP POP SWAP1 POP DUP1 PUSH2 0x710 JUMPI PUSH1 0x40 MLOAD PUSH3 0x461BCD PUSH1 0xE5 SHL DUP2 MSTORE PUSH1 0x20 PUSH1 0x4 DUP3 ADD MSTORE PUSH1 0xB PUSH1 0x24 DUP3 ADD MSTORE PUSH11 0x1C185E5BDD5D0819985A5B PUSH1 0xAA SHL PUSH1 0x44 DUP3 ADD MSTORE PUSH1 0x64 ADD PUSH2 0x4AF JUMP JUMPDEST PUSH1 0x1 SLOAD PUSH1 0x40 DUP1 MLOAD DUP9 DUP2 MSTORE PUSH1 0x20 DUP2 ADD DUP6 SWAP1 MSTORE CALLER SWAP2 PUSH32 0x3D11E49D17DC6F1C19377A813DB1FC78FA3B3F0324051794E9A361B5B7E434C0 SWAP2 ADD PUSH1 0x40 MLOAD DUP1 SWAP2 SUB SWAP1 LOG3 POP POP POP POP POP POP JUMP JUMPDEST PUSH2 0x75E PUSH2 0xF03 JUMP JUMPDEST PUSH2 0x3E8 DUP2 GT ISZERO PUSH2 0x7A0 JUMPI PUSH1 0x40 MLOAD PUSH3 0x461BCD PUSH1 0xE5 SHL DUP2 MSTORE PUSH1 0x20 PUSH1 0x4 DUP3 ADD MSTORE PUSH1 0xD PUSH1 0x24 DUP3 ADD MSTORE PUSH13 0xCAC8CECA40E8DEDE40D0D2CED PUSH1 0x9B SHL PUSH1 0x44 DUP3 ADD MSTORE PUSH1 0x64 ADD PUSH2 0x4AF JUMP JUMPDEST PUSH1 0x6 DUP2 SWAP1 SSTORE PUSH1 0x40 MLOAD DUP2 DUP2 MSTORE PUSH32 0x5082C314F0D5D410C0175820FE02F58A21198FDE20DDB6E65C96825CADAB67A8 SWAP1 PUSH1 0x20 ADD JUMPDEST PUSH1 0x40 MLOAD DUP1 SWAP2 SUB SWAP1 LOG1 POP JUMP JUMPDEST PUSH2 0x7E4 PUSH2 0xF03 JUMP JUMPDEST PUSH2 0x7EE PUSH1 0x0 PUSH2 0xF30 JUMP JUMPDEST JUMP JUMPDEST PUSH2 0x7F8 PUSH2 0xF03 JUMP JUMPDEST PUSH1 0x8 DUP1 SLOAD PUSH1 0x1 PUSH1 0x1 PUSH1 0xA0 SHL SUB NOT AND PUSH1 0x1 PUSH1 0x1 PUSH1 0xA0 SHL SUB DUP4 AND SWAP1 DUP2 OR SWAP1 SWAP2 SSTORE PUSH1 0x40 MLOAD SWAP1 DUP2 MSTORE PUSH32 0xE5B20B8497E4F3E2435EF9C20E2E26B47497EE13745CE1C681AD6640653119E6 SWAP1 PUSH1 0x20 ADD PUSH2 0x7D1 JUMP JUMPDEST PUSH2 0x84E PUSH2 0xF03 JUMP JUMPDEST PUSH1 0x64 DUP5 LT ISZERO PUSH2 0x88D JUMPI PUSH1 0x40 MLOAD PUSH3 0x461BCD PUSH1 0xE5 SHL DUP2 MSTORE PUSH1 0x20 PUSH1 0x4 DUP3 ADD MSTORE PUSH1 0xB PUSH1 0x24 DUP3 ADD MSTORE PUSH11 0xC4C2E6CA7C7A625C6060F PUSH1 0xAB SHL PUSH1 0x44 DUP3 ADD MSTORE PUSH1 0x64 ADD PUSH2 0x4AF JUMP JUMPDEST DUP4 DUP3 LT ISZERO PUSH2 0x8C9 JUMPI PUSH1 0x40 MLOAD PUSH3 0x461BCD PUSH1 0xE5 SHL DUP2 MSTORE PUSH1 0x20 PUSH1 0x4 DUP3 ADD MSTORE PUSH1 0x9 PUSH1 0x24 DUP3 ADD MSTORE PUSH9 0x6D61783E3D62617365 PUSH1 0xB8 SHL PUSH1 0x44 DUP3 ADD MSTORE PUSH1 0x64 ADD PUSH2 0x4AF JUMP JUMPDEST PUSH1 0x65 DUP2 LT ISZERO PUSH2 0x907 JUMPI PUSH1 0x40 MLOAD PUSH3 0x461BCD PUSH1 0xE5 SHL DUP2 MSTORE PUSH1 0x20 PUSH1 0x4 DUP3 ADD MSTORE PUSH1 0xA PUSH1 0x24 DUP3 ADD MSTORE PUSH10 0xDAD2DC7C7A625C6062F PUSH1 0xB3 SHL PUSH1 0x44 DUP3 ADD MSTORE PUSH1 0x64 ADD PUSH2 0x4AF JUMP JUMPDEST PUSH1 0x9 DUP5 SWAP1 SSTORE PUSH1 0xA DUP4 SWAP1 SSTORE PUSH1 0xB DUP3 SWAP1 SSTORE PUSH1 0xC DUP2 SWAP1 SSTORE PUSH1 0x40 DUP1 MLOAD DUP6 DUP2 MSTORE PUSH1 0x20 DUP2 ADD DUP6 SWAP1 MSTORE SWAP1 DUP2 ADD DUP4 SWAP1 MSTORE PUSH1 0x60 DUP2 ADD DUP3 SWAP1 MSTORE PUSH32 0x5D3C7B528485E17FE0314971648177A48225C729BB2270E5426AD03876EB0889 SWAP1 PUSH1 0x80 ADD PUSH1 0x40 MLOAD DUP1 SWAP2 SUB SWAP1 LOG1 POP POP POP POP JUMP JUMPDEST PUSH1 0x3 SLOAD PUSH1 0xFF AND ISZERO PUSH2 0x9A9 JUMPI PUSH1 0x40 MLOAD PUSH3 0x461BCD PUSH1 0xE5 SHL DUP2 MSTORE PUSH1 0x20 PUSH1 0x4 DUP3 ADD MSTORE PUSH1 0xA PUSH1 0x24 DUP3 ADD MSTORE PUSH10 0x726F756E64206C697665 PUSH1 0xB0 SHL PUSH1 0x44 DUP3 ADD MSTORE PUSH1 0x64 ADD PUSH2 0x4AF JUMP JUMPDEST PUSH1 0x0 PUSH1 0x2 SLOAD GT PUSH2 0x9EA JUMPI PUSH1 0x40 MLOAD PUSH3 0x461BCD PUSH1 0xE5 SHL DUP2 MSTORE PUSH1 0x20 PUSH1 0x4 DUP3 ADD MSTORE PUSH1 0xC PUSH1 0x24 DUP3 ADD MSTORE PUSH12 0x1B9BC818DC985CDA081E595D PUSH1 0xA2 SHL PUSH1 0x44 DUP3 ADD MSTORE PUSH1 0x64 ADD PUSH2 0x4AF JUMP JUMPDEST CALLER PUSH1 0x0 SWAP1 DUP2 MSTORE PUSH1 0xD PUSH1 0x20 MSTORE PUSH1 0x40 SWAP1 KECCAK256 PUSH1 0x1 DUP2 ADD SLOAD PUSH1 0xFF AND PUSH2 0xA36 JUMPI PUSH1 0x40 MLOAD PUSH3 0x461BCD PUSH1 0xE5 SHL DUP2 MSTORE PUSH1 0x20 PUSH1 0x4 DUP3 ADD MSTORE PUSH1 0x6 PUSH1 0x24 DUP3 ADD MSTORE PUSH6 0x1B9BC818995D PUSH1 0xD2 SHL PUSH1 0x44 DUP3 ADD MSTORE PUSH1 0x64 ADD PUSH2 0x4AF JUMP JUMPDEST PUSH1 0x1 DUP2 ADD DUP1 SLOAD PUSH1 0xFF NOT AND SWAP1 SSTORE PUSH1 0x0 SWAP1 SSTORE JUMP JUMPDEST PUSH2 0xA50 PUSH2 0xF03 JUMP JUMPDEST PUSH1 0x1 PUSH1 0x1 PUSH1 0xA0 SHL SUB DUP2 AND PUSH2 0xA93 JUMPI PUSH1 0x40 MLOAD PUSH3 0x461BCD PUSH1 0xE5 SHL DUP2 MSTORE PUSH1 0x20 PUSH1 0x4 DUP3 ADD MSTORE PUSH1 0xA PUSH1 0x24 DUP3 ADD MSTORE PUSH10 0x74726561737572793D3 PUSH1 0xB4 SHL PUSH1 0x44 DUP3 ADD MSTORE PUSH1 0x64 ADD PUSH2 0x4AF JUMP JUMPDEST PUSH1 0x7 DUP1 SLOAD PUSH1 0x1 PUSH1 0x1 PUSH1 0xA0 SHL SUB NOT AND PUSH1 0x1 PUSH1 0x1 PUSH1 0xA0 SHL SUB DUP4 AND SWAP1 DUP2 OR SWAP1 SWAP2 SSTORE PUSH1 0x40 MLOAD SWAP1 DUP2 MSTORE PUSH32 0x7DAE230F18360D76A040C81F050AA14EB9D6DC7901B20FC5D855E2A20FE814D1 SWAP1 PUSH1 0x20 ADD PUSH2 0x7D1 JUMP JUMPDEST PUSH2 0xAE9 PUSH2 0xF03 JUMP JUMPDEST PUSH1 0x1 PUSH1 0x1 PUSH1 0xA0 SHL SUB DUP2 AND PUSH2 0xB13 JUMPI PUSH1 0x40 MLOAD PUSH4 0x1E4FBDF7 PUSH1 0xE0 SHL DUP2 MSTORE PUSH1 0x0 PUSH1 0x4 DUP3 ADD MSTORE PUSH1 0x24 ADD PUSH2 0x4AF JUMP JUMPDEST PUSH2 0xB1C DUP2 PUSH2 0xF30 JUMP JUMPDEST POP JUMP JUMPDEST PUSH1 0x3 SLOAD PUSH1 0xFF AND PUSH2 0xB62 JUMPI PUSH1 0x40 MLOAD PUSH3 0x461BCD PUSH1 0xE5 SHL DUP2 MSTORE PUSH1 0x20 PUSH1 0x4 DUP3 ADD MSTORE PUSH1 0xE PUSH1 0x24 DUP3 ADD MSTORE PUSH14 0x18995D1D1A5B99C818DB1BDCD959 PUSH1 0x92 SHL PUSH1 0x44 DUP3 ADD MSTORE PUSH1 0x64 ADD PUSH2 0x4AF JUMP JUMPDEST PUSH1 0x0 CALLVALUE GT PUSH2 0xB9D JUMPI PUSH1 0x40 MLOAD PUSH3 0x461BCD PUSH1 0xE5 SHL DUP2 MSTORE PUSH1 0x20 PUSH1 0x4 DUP3 ADD MSTORE PUSH1 0x8 PUSH1 0x24 DUP3 ADD MSTORE PUSH8 0x6E6F2076616C7565 PUSH1 0xC0 SHL PUSH1 0x44 DUP3 ADD MSTORE PUSH1 0x64 ADD PUSH2 0x4AF JUMP JUMPDEST CALLER PUSH1 0x0 SWAP1 DUP2 MSTORE PUSH1 0xD PUSH1 0x20 MSTORE PUSH1 0x40 SWAP1 KECCAK256 PUSH1 0x1 DUP2 ADD SLOAD PUSH1 0xFF AND ISZERO PUSH2 0xBEE JUMPI PUSH1 0x40 MLOAD PUSH3 0x461BCD PUSH1 0xE5 SHL DUP2 MSTORE PUSH1 0x20 PUSH1 0x4 DUP3 ADD MSTORE PUSH1 0xA PUSH1 0x24 DUP3 ADD MSTORE PUSH10 0x62657420657869737473 PUSH1 0xB0 SHL PUSH1 0x44 DUP3 ADD MSTORE PUSH1 0x64 ADD PUSH2 0x4AF JUMP JUMPDEST CALLVALUE DUP1 DUP3 SSTORE PUSH1 0x1 DUP1 DUP4 ADD DUP1 SLOAD PUSH1 0xFF NOT AND DUP3 OR SWAP1 SSTORE SLOAD PUSH1 0x40 MLOAD SWAP2 DUP3 MSTORE SWAP1 CALLER SWAP1 PUSH31 0x1ECF1D0C4D22F324B3ECB9CDF0E5F772BC74AC104E6626F4B3845433D03105 SWAP1 PUSH1 0x20 ADD PUSH1 0x40 MLOAD DUP1 SWAP2 SUB SWAP1 LOG3 POP JUMP JUMPDEST PUSH2 0xC42 PUSH2 0xF03 JUMP JUMPDEST PUSH1 0x3 SLOAD PUSH1 0xFF AND ISZERO PUSH2 0xC83 JUMPI PUSH1 0x40 MLOAD PUSH3 0x461BCD PUSH1 0xE5 SHL DUP2 MSTORE PUSH1 0x20 PUSH1 0x4 DUP3 ADD MSTORE PUSH1 0xB PUSH1 0x24 DUP3 ADD MSTORE PUSH11 0x18DB1BDCD948199A5C9CDD PUSH1 0xAA SHL PUSH1 0x44 DUP3 ADD MSTORE PUSH1 0x64 ADD PUSH2 0x4AF JUMP JUMPDEST PUSH2 0x7EE PUSH2 0xF80 JUMP JUMPDEST PUSH2 0xC93 PUSH2 0xF03 JUMP JUMPDEST PUSH1 0x3 SLOAD PUSH1 0xFF AND PUSH2 0xCD6 JUMPI PUSH1 0x40 MLOAD PUSH3 0x461BCD PUSH1 0xE5 SHL DUP2 MSTORE PUSH1 0x20 PUSH1 0x4 DUP3 ADD MSTORE PUSH1 0xE PUSH1 0x24 DUP3 ADD MSTORE PUSH14 0x185B1C9958591E4818DB1BDCD959 PUSH1 0x92 SHL PUSH1 0x44 DUP3 ADD MSTORE PUSH1 0x64 ADD PUSH2 0x4AF JUMP JUMPDEST PUSH1 0x3 DUP1 SLOAD PUSH1 0xFF NOT AND SWAP1 SSTORE PUSH1 0x9 SLOAD PUSH1 0x8 SLOAD PUSH1 0x1 PUSH1 0x1 PUSH1 0xA0 SHL SUB AND ISZERO DUP1 ISZERO SWAP1 PUSH2 0xCFE JUMPI POP PUSH1 0x5 SLOAD ISZERO ISZERO JUMPDEST ISZERO PUSH2 0xDF1 JUMPI PUSH1 0x8 SLOAD PUSH1 0x40 DUP1 MLOAD PUSH4 0x3FABE5A3 PUSH1 0xE2 SHL DUP2 MSTORE SWAP1 MLOAD PUSH1 0x0 SWAP3 PUSH1 0x1 PUSH1 0x1 PUSH1 0xA0 SHL SUB AND SWAP2 PUSH4 0xFEAF968C SWAP2 PUSH1 0x4 DUP1 DUP4 ADD SWAP3 PUSH1 0xA0 SWAP3 SWAP2 SWAP1 DUP3 SWAP1 SUB ADD DUP2 DUP7 GAS STATICCALL ISZERO DUP1 ISZERO PUSH2 0xD4D JUMPI RETURNDATASIZE PUSH1 0x0 DUP1 RETURNDATACOPY RETURNDATASIZE PUSH1 0x0 REVERT JUMPDEST POP POP POP POP PUSH1 0x40 MLOAD RETURNDATASIZE PUSH1 0x1F NOT PUSH1 0x1F DUP3 ADD AND DUP3 ADD DUP1 PUSH1 0x40 MSTORE POP DUP2 ADD SWAP1 PUSH2 0xD71 SWAP2 SWAP1 PUSH2 0x1178 JUMP JUMPDEST POP POP PUSH1 0x5 SLOAD SWAP2 SWAP4 POP SWAP1 SWAP2 POP PUSH1 0x0 SWAP1 POP PUSH2 0xD8A DUP3 DUP5 PUSH2 0x11C8 JUMP JUMPDEST SWAP1 POP PUSH1 0x0 DUP2 SLT ISZERO PUSH2 0xDA1 JUMPI PUSH2 0xD9E DUP2 PUSH2 0x11EF JUMP JUMPDEST SWAP1 POP JUMPDEST PUSH1 0x0 DUP1 DUP4 SGT PUSH2 0xDB1 JUMPI PUSH1 0x1 PUSH2 0xDB3 JUMP JUMPDEST DUP3 JUMPDEST PUSH2 0xDBF DUP4 PUSH2 0x2710 PUSH2 0x10FF JUMP JUMPDEST PUSH2 0xDC9 SWAP2 SWAP1 PUSH2 0x1132 JUMP JUMPDEST SWAP1 POP PUSH1 0xA SLOAD DUP2 PUSH2 0xDD9 SWAP2 SWAP1 PUSH2 0x10FF JUMP JUMPDEST PUSH1 0x9 SLOAD PUSH2 0xDE6 SWAP2 SWAP1 PUSH2 0x120B JUMP JUMPDEST SWAP5 POP POP POP POP POP PUSH2 0xE1B JUMP JUMPDEST PUSH1 0x64 PUSH1 0xA SLOAD DUP4 PUSH2 0xE01 SWAP2 SWAP1 PUSH2 0x10FF JUMP JUMPDEST PUSH2 0xE0B SWAP2 SWAP1 PUSH2 0x1132 JUMP JUMPDEST PUSH1 0x9 SLOAD PUSH2 0xE18 SWAP2 SWAP1 PUSH2 0x120B JUMP JUMPDEST SWAP1 POP JUMPDEST PUSH1 0x0 PUSH2 0x2AF8 PREVRANDAO TIMESTAMP PUSH1 0x1 SLOAD PUSH1 0x40 MLOAD PUSH1 0x20 ADD PUSH2 0xE48 SWAP4 SWAP3 SWAP2 SWAP1 SWAP3 DUP4 MSTORE PUSH1 0x20 DUP4 ADD SWAP2 SWAP1 SWAP2 MSTORE PUSH1 0x40 DUP3 ADD MSTORE PUSH1 0x60 ADD SWAP1 JUMP JUMPDEST PUSH1 0x40 MLOAD PUSH1 0x20 DUP2 DUP4 SUB SUB DUP2 MSTORE SWAP1 PUSH1 0x40 MSTORE DUP1 MLOAD SWAP1 PUSH1 0x20 ADD KECCAK256 PUSH1 0x0 SHR PUSH2 0xE6B SWAP2 SWAP1 PUSH2 0x121E JUMP JUMPDEST SWAP1 POP PUSH1 0x0 PUSH2 0xE7B PUSH2 0x1388 DUP4 PUSH2 0x11C8 JUMP JUMPDEST SWAP1 POP PUSH1 0x0 PUSH3 0x186A0 PUSH2 0xE8D DUP4 DUP7 PUSH2 0x1232 JUMP JUMPDEST PUSH2 0xE97 SWAP2 SWAP1 PUSH2 0x1262 JUMP JUMPDEST PUSH2 0xEA1 SWAP1 DUP6 PUSH2 0x1290 JUMP JUMPDEST SWAP1 POP PUSH1 0xC SLOAD DUP2 SLT ISZERO PUSH2 0xEB2 JUMPI POP PUSH1 0xC SLOAD JUMPDEST PUSH1 0xB SLOAD DUP2 SGT ISZERO PUSH2 0xEC1 JUMPI POP PUSH1 0xB SLOAD JUMPDEST PUSH1 0x2 DUP2 SWAP1 SSTORE PUSH1 0x1 SLOAD PUSH1 0x40 MLOAD DUP3 DUP2 MSTORE PUSH32 0xC67DDA8E11F1AA941C7E74466B1859A07A32F46AAF641D29B83BE348424D93CD SWAP1 PUSH1 0x20 ADD PUSH1 0x40 MLOAD DUP1 SWAP2 SUB SWAP1 LOG2 POP POP POP POP POP JUMP JUMPDEST PUSH1 0x0 SLOAD PUSH1 0x1 PUSH1 0x1 PUSH1 0xA0 SHL SUB AND CALLER EQ PUSH2 0x7EE JUMPI PUSH1 0x40 MLOAD PUSH4 0x118CDAA7 PUSH1 0xE0 SHL DUP2 MSTORE CALLER PUSH1 0x4 DUP3 ADD MSTORE PUSH1 0x24 ADD PUSH2 0x4AF JUMP JUMPDEST PUSH1 0x0 DUP1 SLOAD PUSH1 0x1 PUSH1 0x1 PUSH1 0xA0 SHL SUB DUP4 DUP2 AND PUSH1 0x1 PUSH1 0x1 PUSH1 0xA0 SHL SUB NOT DUP4 AND DUP2 OR DUP5 SSTORE PUSH1 0x40 MLOAD SWAP2 SWAP1 SWAP3 AND SWAP3 DUP4 SWAP2 PUSH32 0x8BE0079C531659141344CD1FD0A4F28419497F9722A3DAAFE3B4186F6B6457E0 SWAP2 SWAP1 LOG3 POP POP JUMP JUMPDEST PUSH1 0x1 DUP1 PUSH1 0x0 DUP3 DUP3 SLOAD PUSH2 0xF92 SWAP2 SWAP1 PUSH2 0x120B JUMP JUMPDEST SWAP1 SWAP2 SSTORE POP POP PUSH1 0x0 PUSH1 0x2 SSTORE PUSH1 0x3 DUP1 SLOAD PUSH1 0xFF NOT AND PUSH1 0x1 OR SWAP1 SSTORE TIMESTAMP PUSH1 0x4 SSTORE PUSH1 0x8 SLOAD PUSH1 0x1 PUSH1 0x1 PUSH1 0xA0 SHL SUB AND ISZERO PUSH2 0x103A JUMPI PUSH1 0x8 SLOAD PUSH1 0x40 DUP1 MLOAD PUSH4 0x3FABE5A3 PUSH1 0xE2 SHL DUP2 MSTORE SWAP1 MLOAD PUSH1 0x0 SWAP3 PUSH1 0x1 PUSH1 0x1 PUSH1 0xA0 SHL SUB AND SWAP2 PUSH4 0xFEAF968C SWAP2 PUSH1 0x4 DUP1 DUP4 ADD SWAP3 PUSH1 0xA0 SWAP3 SWAP2 SWAP1 DUP3 SWAP1 SUB ADD DUP2 DUP7 GAS STATICCALL ISZERO DUP1 ISZERO PUSH2 0x1008 JUMPI RETURNDATASIZE PUSH1 0x0 DUP1 RETURNDATACOPY RETURNDATASIZE PUSH1 0x0 REVERT JUMPDEST POP POP POP POP PUSH1 0x40 MLOAD RETURNDATASIZE PUSH1 0x1F NOT PUSH1 0x1F DUP3 ADD AND DUP3 ADD DUP1 PUSH1 0x40 MSTORE POP DUP2 ADD SWAP1 PUSH2 0x102C SWAP2 SWAP1 PUSH2 0x1178 JUMP JUMPDEST POP POP POP PUSH1 0x5 SSTORE POP PUSH2 0x1040 SWAP1 POP JUMP JUMPDEST PUSH1 0x0 PUSH1 0x5 SSTORE JUMPDEST PUSH1 0x1 SLOAD PUSH1 0x40 MLOAD PUSH32 0xF5D5ACF597A5F9D06A24389EBEA67F576C74DA4D4A73B97A5DFAC2452ACAD647 SWAP1 PUSH1 0x0 SWAP1 LOG2 JUMP JUMPDEST PUSH1 0x0 PUSH1 0x20 DUP3 DUP5 SUB SLT ISZERO PUSH2 0x1080 JUMPI PUSH1 0x0 DUP1 REVERT JUMPDEST POP CALLDATALOAD SWAP2 SWAP1 POP JUMP JUMPDEST PUSH1 0x0 PUSH1 0x20 DUP3 DUP5 SUB SLT ISZERO PUSH2 0x1099 JUMPI PUSH1 0x0 DUP1 REVERT JUMPDEST DUP2 CALLDATALOAD PUSH1 0x1 PUSH1 0x1 PUSH1 0xA0 SHL SUB DUP2 AND DUP2 EQ PUSH2 0x10B0 JUMPI PUSH1 0x0 DUP1 REVERT JUMPDEST SWAP4 SWAP3 POP POP POP JUMP JUMPDEST PUSH1 0x0 DUP1 PUSH1 0x0 DUP1 PUSH1 0x80 DUP6 DUP8 SUB SLT ISZERO PUSH2 0x10CD JUMPI PUSH1 0x0 DUP1 REVERT JUMPDEST POP POP DUP3 CALLDATALOAD SWAP5 PUSH1 0x20 DUP5 ADD CALLDATALOAD SWAP5 POP PUSH1 0x40 DUP5 ADD CALLDATALOAD SWAP4 PUSH1 0x60 ADD CALLDATALOAD SWAP3 POP SWAP1 POP JUMP JUMPDEST PUSH4 0x4E487B71 PUSH1 0xE0 SHL PUSH1 0x0 MSTORE PUSH1 0x11 PUSH1 0x4 MSTORE PUSH1 0x24 PUSH1 0x0 REVERT JUMPDEST DUP1 DUP3 MUL DUP2 ISZERO DUP3 DUP3 DIV DUP5 EQ OR PUSH2 0x1116 JUMPI PUSH2 0x1116 PUSH2 0x10E9 JUMP JUMPDEST SWAP3 SWAP2 POP POP JUMP JUMPDEST PUSH4 0x4E487B71 PUSH1 0xE0 SHL PUSH1 0x0 MSTORE PUSH1 0x12 PUSH1 0x4 MSTORE PUSH1 0x24 PUSH1 0x0 REVERT JUMPDEST PUSH1 0x0 DUP3 PUSH2 0x1141 JUMPI PUSH2 0x1141 PUSH2 0x111C JUMP JUMPDEST POP DIV SWAP1 JUMP JUMPDEST DUP2 DUP2 SUB DUP2 DUP2 GT ISZERO PUSH2 0x1116 JUMPI PUSH2 0x1116 PUSH2 0x10E9 JUMP JUMPDEST DUP1 MLOAD PUSH10 0xFFFFFFFFFFFFFFFFFFFF DUP2 AND DUP2 EQ PUSH2 0x1173 JUMPI PUSH1 0x0 DUP1 REVERT JUMPDEST SWAP2 SWAP1 POP JUMP JUMPDEST PUSH1 0x0 DUP1 PUSH1 0x0 DUP1 PUSH1 0x0 PUSH1 0xA0 DUP7 DUP9 SUB SLT ISZERO PUSH2 0x1190 JUMPI PUSH1 0x0 DUP1 REVERT JUMPDEST PUSH2 0x1199 DUP7 PUSH2 0x1159 JUMP JUMPDEST SWAP5 POP PUSH1 0x20 DUP7 ADD MLOAD SWAP4 POP PUSH1 0x40 DUP7 ADD MLOAD SWAP3 POP PUSH1 0x60 DUP7 ADD MLOAD SWAP2 POP PUSH2 0x11BC PUSH1 0x80 DUP8 ADD PUSH2 0x1159 JUMP JUMPDEST SWAP1 POP SWAP3 SWAP6 POP SWAP3 SWAP6 SWAP1 SWAP4 POP JUMP JUMPDEST DUP2 DUP2 SUB PUSH1 0x0 DUP4 SLT DUP1 ISZERO DUP4 DUP4 SGT AND DUP4 DUP4 SLT DUP3 AND OR ISZERO PUSH2 0x11E8 JUMPI PUSH2 0x11E8 PUSH2 0x10E9 JUMP JUMPDEST POP SWAP3 SWAP2 POP POP JUMP JUMPDEST PUSH1 0x0 PUSH1 0x1 PUSH1 0xFF SHL DUP3 ADD PUSH2 0x1204 JUMPI PUSH2 0x1204 PUSH2 0x10E9 JUMP JUMPDEST POP PUSH1 0x0 SUB SWAP1 JUMP JUMPDEST DUP1 DUP3 ADD DUP1 DUP3 GT ISZERO PUSH2 0x1116 JUMPI PUSH2 0x1116 PUSH2 0x10E9 JUMP JUMPDEST PUSH1 0x0 DUP3 PUSH2 0x122D JUMPI PUSH2 0x122D PUSH2 0x111C JUMP JUMPDEST POP MOD SWAP1 JUMP JUMPDEST DUP1 DUP3 MUL PUSH1 0x0 DUP3 SLT PUSH1 0x1 PUSH1 0xFF SHL DUP5 EQ AND ISZERO PUSH2 0x124E JUMPI PUSH2 0x124E PUSH2 0x10E9 JUMP JUMPDEST DUP2 DUP2 SDIV DUP4 EQ DUP3 ISZERO OR PUSH2 0x1116 JUMPI PUSH2 0x1116 PUSH2 0x10E9 JUMP JUMPDEST PUSH1 0x0 DUP3 PUSH2 0x1271 JUMPI PUSH2 0x1271 PUSH2 0x111C JUMP JUMPDEST PUSH1 0x1 PUSH1 0xFF SHL DUP3 EQ PUSH1 0x0 NOT DUP5 EQ AND ISZERO PUSH2 0x128B JUMPI PUSH2 0x128B PUSH2 0x10E9 JUMP JUMPDEST POP SDIV SWAP1 JUMP JUMPDEST DUP1 DUP3 ADD DUP3 DUP2 SLT PUSH1 0x0 DUP4 SLT DUP1 ISZERO DUP3 AND DUP3 ISZERO DUP3 AND OR ISZERO PUSH2 0x12B0 JUMPI PUSH2 0x12B0 PUSH2 0x10E9 JUMP JUMPDEST POP POP SWAP3 SWAP2 POP POP JUMP INVALID LOG2 PUSH5 0x6970667358 0x22 SLT KECCAK256 PUSH29 0xE12781F3FB54942F2691CD6B6A3EB55F18A7914CB2639C182A9BD9E6A2 0xAC DUP9 PUSH5 0x736F6C6343 STOP ADDMOD EQ STOP CALLER "},"methodIdentifiers":{"baseX100()":"ec67a8e2","bets(address)":"89a78f1a","bettingOpen()":"15b19770","cashOut(uint256)":"5c7b79f5","closeAndSetCrash(uint256)":"ff4f8e8f","crashMultiplierX100()":"9bd9cf16","currentRoundId()":"9cbe5efd","factorPerPct()":"3acfa74c","forfeitOnCrash()":"dfa5b02f","fund()":"b60d4288","houseEdgeBps()":"00998421","maxMultiplierX100()":"16e70fce","minCashoutX100()":"50263caf","openNextRound()":"fcee01a6","owner()":"8da5cb5b","placeBet()":"f90f4560","priceFeed()":"741bef1a","renounceOwnership()":"715018a6","roundStartPrice()":"b09419ac","roundStartTs()":"1bbfd67b","setHouseEdge(uint256)":"6cd0f102","setPriceFeed(address)":"724e78da","setRiskParams(uint256,uint256,uint256,uint256)":"d7376af3","setTreasury(address)":"f0f44260","transferOwnership(address)":"f2fde38b","treasury()":"61d027b3"}}}}}