{
  "_format": "hh-sol-artifact-1",
  "contractName": "CommunityMarket",
  "sourceName": "contracts/CommunityMarket.sol",
  "abi": [
    {
      "inputs": [
        {
          "internalType": "address",
          "name": "initialOwner",
          "type": "address"
        },
        {
          "internalType": "address",
          "name": "treasuryAddress",
          "type": "address"
        }
      ],
      "stateMutability": "nonpayable",
      "type": "constructor"
    },
    {
      "inputs": [
        {
          "internalType": "address",
          "name": "owner",
          "type": "address"
        }
      ],
      "name": "OwnableInvalidOwner",
      "type": "error"
    },
    {
      "inputs": [
        {
          "internalType": "address",
          "name": "account",
          "type": "address"
        }
      ],
      "name": "OwnableUnauthorizedAccount",
      "type": "error"
    },
    {
      "inputs": [],
      "name": "ReentrancyGuardReentrantCall",
      "type": "error"
    },
    {
      "anonymous": false,
      "inputs": [
        {
          "indexed": true,
          "internalType": "uint256",
          "name": "id",
          "type": "uint256"
        },
        {
          "indexed": true,
          "internalType": "address",
          "name": "user",
          "type": "address"
        },
        {
          "indexed": false,
          "internalType": "bool",
          "name": "yes",
          "type": "bool"
        },
        {
          "indexed": false,
          "internalType": "uint256",
          "name": "amountWei",
          "type": "uint256"
        }
      ],
      "name": "BetPlaced",
      "type": "event"
    },
    {
      "anonymous": false,
      "inputs": [
        {
          "indexed": true,
          "internalType": "uint256",
          "name": "id",
          "type": "uint256"
        },
        {
          "indexed": true,
          "internalType": "address",
          "name": "user",
          "type": "address"
        },
        {
          "indexed": false,
          "internalType": "uint256",
          "name": "payoutWei",
          "type": "uint256"
        },
        {
          "indexed": false,
          "internalType": "uint256",
          "name": "feeWei",
          "type": "uint256"
        }
      ],
      "name": "Claimed",
      "type": "event"
    },
    {
      "anonymous": false,
      "inputs": [
        {
          "indexed": false,
          "internalType": "uint256",
          "name": "newHouseEdgeBps",
          "type": "uint256"
        }
      ],
      "name": "HouseEdgeUpdated",
      "type": "event"
    },
    {
      "anonymous": false,
      "inputs": [
        {
          "indexed": true,
          "internalType": "uint256",
          "name": "id",
          "type": "uint256"
        },
        {
          "indexed": true,
          "internalType": "address",
          "name": "creator",
          "type": "address"
        },
        {
          "indexed": false,
          "internalType": "string",
          "name": "title",
          "type": "string"
        },
        {
          "indexed": false,
          "internalType": "string",
          "name": "category",
          "type": "string"
        },
        {
          "indexed": false,
          "internalType": "string",
          "name": "privateGroupId",
          "type": "string"
        },
        {
          "indexed": false,
          "internalType": "uint64",
          "name": "endsAt",
          "type": "uint64"
        },
        {
          "indexed": false,
          "internalType": "uint32",
          "name": "yesOddsX100",
          "type": "uint32"
        },
        {
          "indexed": false,
          "internalType": "uint32",
          "name": "noOddsX100",
          "type": "uint32"
        }
      ],
      "name": "MarketCreated",
      "type": "event"
    },
    {
      "anonymous": false,
      "inputs": [
        {
          "indexed": true,
          "internalType": "address",
          "name": "previousOwner",
          "type": "address"
        },
        {
          "indexed": true,
          "internalType": "address",
          "name": "newOwner",
          "type": "address"
        }
      ],
      "name": "OwnershipTransferred",
      "type": "event"
    },
    {
      "anonymous": false,
      "inputs": [
        {
          "indexed": true,
          "internalType": "uint256",
          "name": "id",
          "type": "uint256"
        },
        {
          "indexed": false,
          "internalType": "bool",
          "name": "outcomeYes",
          "type": "bool"
        }
      ],
      "name": "Resolved",
      "type": "event"
    },
    {
      "anonymous": false,
      "inputs": [
        {
          "indexed": false,
          "internalType": "address",
          "name": "newTreasury",
          "type": "address"
        }
      ],
      "name": "TreasuryUpdated",
      "type": "event"
    },
    {
      "inputs": [
        {
          "internalType": "uint256",
          "name": "id",
          "type": "uint256"
        },
        {
          "internalType": "bool",
          "name": "yes",
          "type": "bool"
        }
      ],
      "name": "bet",
      "outputs": [],
      "stateMutability": "payable",
      "type": "function"
    },
    {
      "inputs": [
        {
          "internalType": "uint256",
          "name": "id",
          "type": "uint256"
        }
      ],
      "name": "claim",
      "outputs": [],
      "stateMutability": "nonpayable",
      "type": "function"
    },
    {
      "inputs": [
        {
          "internalType": "string",
          "name": "title",
          "type": "string"
        },
        {
          "internalType": "string",
          "name": "description",
          "type": "string"
        },
        {
          "internalType": "string",
          "name": "category",
          "type": "string"
        },
        {
          "internalType": "string",
          "name": "privateGroupId",
          "type": "string"
        },
        {
          "internalType": "uint64",
          "name": "endsAt",
          "type": "uint64"
        },
        {
          "internalType": "uint32",
          "name": "yesOddsX100",
          "type": "uint32"
        },
        {
          "internalType": "uint32",
          "name": "noOddsX100",
          "type": "uint32"
        }
      ],
      "name": "createMarket",
      "outputs": [
        {
          "internalType": "uint256",
          "name": "id",
          "type": "uint256"
        }
      ],
      "stateMutability": "nonpayable",
      "type": "function"
    },
    {
      "inputs": [],
      "name": "houseEdgeBps",
      "outputs": [
        {
          "internalType": "uint256",
          "name": "",
          "type": "uint256"
        }
      ],
      "stateMutability": "view",
      "type": "function"
    },
    {
      "inputs": [],
      "name": "marketCount",
      "outputs": [
        {
          "internalType": "uint256",
          "name": "",
          "type": "uint256"
        }
      ],
      "stateMutability": "view",
      "type": "function"
    },
    {
      "inputs": [
        {
          "internalType": "uint256",
          "name": "",
          "type": "uint256"
        }
      ],
      "name": "markets",
      "outputs": [
        {
          "internalType": "address",
          "name": "creator",
          "type": "address"
        },
        {
          "internalType": "string",
          "name": "title",
          "type": "string"
        },
        {
          "internalType": "string",
          "name": "description",
          "type": "string"
        },
        {
          "internalType": "string",
          "name": "category",
          "type": "string"
        },
        {
          "internalType": "string",
          "name": "privateGroupId",
          "type": "string"
        },
        {
          "internalType": "uint64",
          "name": "endsAt",
          "type": "uint64"
        },
        {
          "internalType": "uint32",
          "name": "yesOddsX100",
          "type": "uint32"
        },
        {
          "internalType": "uint32",
          "name": "noOddsX100",
          "type": "uint32"
        },
        {
          "internalType": "uint256",
          "name": "totalYesWei",
          "type": "uint256"
        },
        {
          "internalType": "uint256",
          "name": "totalNoWei",
          "type": "uint256"
        },
        {
          "internalType": "bool",
          "name": "resolved",
          "type": "bool"
        },
        {
          "internalType": "bool",
          "name": "outcomeYes",
          "type": "bool"
        }
      ],
      "stateMutability": "view",
      "type": "function"
    },
    {
      "inputs": [],
      "name": "owner",
      "outputs": [
        {
          "internalType": "address",
          "name": "",
          "type": "address"
        }
      ],
      "stateMutability": "view",
      "type": "function"
    },
    {
      "inputs": [
        {
          "internalType": "uint256",
          "name": "id",
          "type": "uint256"
        },
        {
          "internalType": "address",
          "name": "user",
          "type": "address"
        }
      ],
      "name": "previewClaim",
      "outputs": [
        {
          "internalType": "uint256",
          "name": "payoutWei",
          "type": "uint256"
        },
        {
          "internalType": "uint256",
          "name": "feeWei",
          "type": "uint256"
        }
      ],
      "stateMutability": "view",
      "type": "function"
    },
    {
      "inputs": [],
      "name": "renounceOwnership",
      "outputs": [],
      "stateMutability": "nonpayable",
      "type": "function"
    },
    {
      "inputs": [
        {
          "internalType": "uint256",
          "name": "id",
          "type": "uint256"
        },
        {
          "internalType": "bool",
          "name": "outcomeYes",
          "type": "bool"
        }
      ],
      "name": "resolve",
      "outputs": [],
      "stateMutability": "nonpayable",
      "type": "function"
    },
    {
      "inputs": [
        {
          "internalType": "uint256",
          "name": "newHouseEdgeBps",
          "type": "uint256"
        }
      ],
      "name": "setHouseEdge",
      "outputs": [],
      "stateMutability": "nonpayable",
      "type": "function"
    },
    {
      "inputs": [
        {
          "internalType": "address",
          "name": "newTreasury",
          "type": "address"
        }
      ],
      "name": "setTreasury",
      "outputs": [],
      "stateMutability": "nonpayable",
      "type": "function"
    },
    {
      "inputs": [
        {
          "internalType": "address",
          "name": "newOwner",
          "type": "address"
        }
      ],
      "name": "transferOwnership",
      "outputs": [],
      "stateMutability": "nonpayable",
      "type": "function"
    },
    {
      "inputs": [],
      "name": "treasury",
      "outputs": [
        {
          "internalType": "address",
          "name": "",
          "type": "address"
        }
      ],
      "stateMutability": "view",
      "type": "function"
    },
    {
      "inputs": [
        {
          "internalType": "uint256",
          "name": "",
          "type": "uint256"
        },
        {
          "internalType": "address",
          "name": "",
          "type": "address"
        }
      ],
      "name": "userNoWei",
      "outputs": [
        {
          "internalType": "uint256",
          "name": "",
          "type": "uint256"
        }
      ],
      "stateMutability": "view",
      "type": "function"
    },
    {
      "inputs": [
        {
          "internalType": "uint256",
          "name": "",
          "type": "uint256"
        },
        {
          "internalType": "address",
          "name": "",
          "type": "address"
        }
      ],
      "name": "userYesWei",
      "outputs": [
        {
          "internalType": "uint256",
          "name": "",
          "type": "uint256"
        }
      ],
      "stateMutability": "view",
      "type": "function"
    }
  ],
  "bytecode": "0x608060405260c86006553480156200001657600080fd5b50604051620018a2380380620018a2833981016040819052620000399162000153565b816001600160a01b0381166200006a57604051631e4fbdf760e01b8152600060048201526024015b60405180910390fd5b6200007581620000e6565b50600180556001600160a01b038116620000bf5760405162461bcd60e51b815260206004820152600a602482015269074726561737572793d360b41b604482015260640162000061565b600780546001600160a01b0319166001600160a01b0392909216919091179055506200018b565b600080546001600160a01b038381166001600160a01b0319831681178455604051919092169283917f8be0079c531659141344cd1fd0a4f28419497f9722a3daafe3b4186f6b6457e09190a35050565b80516001600160a01b03811681146200014e57600080fd5b919050565b600080604083850312156200016757600080fd5b620001728362000136565b9150620001826020840162000136565b90509250929050565b611707806200019b6000396000f3fe6080604052600436106100f25760003560e01c80638a1bc9741161008a578063b8ae007d11610059578063b8ae007d146102c8578063ec979082146102fd578063f0f4426014610313578063f2fde38b1461033357600080fd5b80638a1bc9741461023f5780638da5cb5b1461025f5780639a6d3aaa1461027d578063b1283e771461029057600080fd5b806361d027b3116100c657806361d027b31461019a5780636cd0f102146101d2578063715018a6146101f25780637ac04c691461020757600080fd5b8062998421146100f757806317998e2c14610120578063379607f51461015857806352a34b051461017a575b600080fd5b34801561010357600080fd5b5061010d60065481565b6040519081526020015b60405180910390f35b34801561012c57600080fd5b5061010d61013b366004611135565b600560209081526000928352604080842090915290825290205481565b34801561016457600080fd5b50610178610173366004611161565b610353565b005b34801561018657600080fd5b5061017861019536600461117a565b610603565b3480156101a657600080fd5b506007546101ba906001600160a01b031681565b6040516001600160a01b039091168152602001610117565b3480156101de57600080fd5b506101786101ed366004611161565b610743565b3480156101fe57600080fd5b506101786107c9565b34801561021357600080fd5b5061010d610222366004611135565b600460209081526000928352604080842090915290825290205481565b34801561024b57600080fd5b5061010d61025a36600461121d565b6107dd565b34801561026b57600080fd5b506000546001600160a01b03166101ba565b61017861028b36600461117a565b610a08565b34801561029c57600080fd5b506102b06102ab366004611161565b610bcc565b6040516101179c9b9a9998979695949392919061135a565b3480156102d457600080fd5b506102e86102e3366004611135565b610e6d565b60408051928352602083019190915201610117565b34801561030957600080fd5b5061010d60025481565b34801561031f57600080fd5b5061017861032e366004611423565b610f9e565b34801561033f57600080fd5b5061017861034e366004611423565b611037565b61035b611072565b6000818152600360205260409020600881015460ff166103b15760405162461bcd60e51b815260206004820152600c60248201526b1b9bdd081c995cdbdb1d995960a21b60448201526064015b60405180910390fd5b6008810154600090610100900460ff166103e45760008381526005602090815260408083203384529091529020546103ff565b60008381526004602090815260408083203384529091529020545b90506000811161043b5760405162461bcd60e51b81526020600482015260076024820152666e6f7468696e6760c81b60448201526064016103a8565b6008820154610100900460ff161561046c576000838152600460209081526040808320338452909152812055610487565b60008381526005602090815260408083203384529091528120555b6000806104948533610e6d565b9092509050801561052f576007546040516000916001600160a01b03169083908381818185875af1925050503d80600081146104ec576040519150601f19603f3d011682016040523d82523d6000602084013e6104f1565b606091505b505090508061052d5760405162461bcd60e51b81526020600482015260086024820152671999594819985a5b60c21b60448201526064016103a8565b505b604051600090339084908381818185875af1925050503d8060008114610571576040519150601f19603f3d011682016040523d82523d6000602084013e610576565b606091505b50509050806105b55760405162461bcd60e51b815260206004820152600b60248201526a1c185e5bdd5d0819985a5b60aa1b60448201526064016103a8565b6040805184815260208101849052339188917fd9cb1e2714d65a111c0f20f060176ad657496bd47a3de04ec7c3d4ca232112ac910160405180910390a3505050505061060060018055565b50565b61060b61109c565b600082815260036020526040902080546001600160a01b031661065c5760405162461bcd60e51b81526020600482015260096024820152681b9bc81b585c9ad95d60ba1b60448201526064016103a8565b600881015460ff161561069c5760405162461bcd60e51b81526020600482015260086024820152671c995cdbdb1d995960c21b60448201526064016103a8565b600581015467ffffffffffffffff164210156106e65760405162461bcd60e51b81526020600482015260096024820152681b9bdd08195b99195960ba1b60448201526064016103a8565b6008810180548315156101000261ffff1990911617600117905560405183907fe940c2f4a2e1dda6ea582b576e35520a2ec6b80e436c26962c1150ddd7d079939061073690851515815260200190565b60405180910390a2505050565b61074b61109c565b6103e881111561078d5760405162461bcd60e51b815260206004820152600d60248201526c0cac8ceca40e8dede40d0d2ced609b1b60448201526064016103a8565b60068190556040518181527f5082c314f0d5d410c0175820fe02f58a21198fde20ddb6e65c96825cadab67a8906020015b60405180910390a150565b6107d161109c565b6107db60006110c9565b565b60008a158015906107ed57508815155b6108215760405162461bcd60e51b8152602060048201526005602482015264656d70747960d81b60448201526064016103a8565b428467ffffffffffffffff16116108685760405162461bcd60e51b815260206004820152600b60248201526a195b991cd05d081c185cdd60aa1b60448201526064016103a8565b60658363ffffffff1610158015610886575060658263ffffffff1610155b6108c05760405162461bcd60e51b815260206004820152600b60248201526a0dec8c8e67c7a625c6062f60ab1b60448201526064016103a8565b6002600081546108cf9061145b565b9182905550600081815260036020526040902080546001600160a01b03191633178155909150600181016109048d8f83611513565b50600281016109148b8d83611513565b5060038101610924898b83611513565b5060048101610934878983611513565b50848160050160006101000a81548167ffffffffffffffff021916908367ffffffffffffffff160217905550838160050160086101000a81548163ffffffff021916908363ffffffff1602179055508281600501600c6101000a81548163ffffffff021916908363ffffffff160217905550336001600160a01b0316827fc13e12c297057309c51e57cc045224ab900a6d26fdb7d72dccaa041ea8ebde508f8f8d8d8d8d8d8d8d6040516109f0999897969594939291906115fd565b60405180910390a3509b9a5050505050505050505050565b610a10611072565b600082815260036020526040902080546001600160a01b0316610a615760405162461bcd60e51b81526020600482015260096024820152681b9bc81b585c9ad95d60ba1b60448201526064016103a8565b600581015467ffffffffffffffff164210610aa65760405162461bcd60e51b8152602060048201526005602482015264195b99195960da1b60448201526064016103a8565b60003411610ae15760405162461bcd60e51b81526020600482015260086024820152676e6f2076616c756560c01b60448201526064016103a8565b8115610b3657600083815260046020908152604080832033845290915281208054349290610b1090849061166c565b9250508190555034816006016000828254610b2b919061166c565b90915550610b809050565b600083815260056020908152604080832033845290915281208054349290610b5f90849061166c565b9250508190555034816007016000828254610b7a919061166c565b90915550505b604080518315158152346020820152339185917f4af71b021e799c62c158bd54636ca8da2fa26115a21a2dc6efe486ec104fd15f910160405180910390a350610bc860018055565b5050565b600360205260009081526040902080546001820180546001600160a01b039092169291610bf89061148a565b80601f0160208091040260200160405190810160405280929190818152602001828054610c249061148a565b8015610c715780601f10610c4657610100808354040283529160200191610c71565b820191906000526020600020905b815481529060010190602001808311610c5457829003601f168201915b505050505090806002018054610c869061148a565b80601f0160208091040260200160405190810160405280929190818152602001828054610cb29061148a565b8015610cff5780601f10610cd457610100808354040283529160200191610cff565b820191906000526020600020905b815481529060010190602001808311610ce257829003601f168201915b505050505090806003018054610d149061148a565b80601f0160208091040260200160405190810160405280929190818152602001828054610d409061148a565b8015610d8d5780601f10610d6257610100808354040283529160200191610d8d565b820191906000526020600020905b815481529060010190602001808311610d7057829003601f168201915b505050505090806004018054610da29061148a565b80601f0160208091040260200160405190810160405280929190818152602001828054610dce9061148a565b8015610e1b5780601f10610df057610100808354040283529160200191610e1b565b820191906000526020600020905b815481529060010190602001808311610dfe57829003601f168201915b50505050600583015460068401546007850154600890950154939467ffffffffffffffff83169463ffffffff600160401b850481169550600160601b9094049093169260ff808216916101009004168c565b6000828152600360205260408120600881015482919060ff16610e97576000809250925050610f97565b6008810154600090610100900460ff16610ed35760008681526005602090815260408083206001600160a01b0389168452909152902054610ef7565b60008681526004602090815260408083206001600160a01b03891684529091529020545b905080600003610f0f57600080935093505050610f97565b6008820154600090610100900460ff16610f3a576005830154600160601b900463ffffffff16610f4d565b6005830154600160401b900463ffffffff165b905060006064610f5d8385611685565b610f67919061169c565b905061271060065482610f7a9190611685565b610f84919061169c565b9450610f9085826116be565b9550505050505b9250929050565b610fa661109c565b6001600160a01b038116610fe95760405162461bcd60e51b815260206004820152600a602482015269074726561737572793d360b41b60448201526064016103a8565b600780546001600160a01b0319166001600160a01b0383169081179091556040519081527f7dae230f18360d76a040c81f050aa14eb9d6dc7901b20fc5d855e2a20fe814d1906020016107be565b61103f61109c565b6001600160a01b03811661106957604051631e4fbdf760e01b8152600060048201526024016103a8565b610600816110c9565b60026001540361109557604051633ee5aeb560e01b815260040160405180910390fd5b6002600155565b6000546001600160a01b031633146107db5760405163118cdaa760e01b81523360048201526024016103a8565b600080546001600160a01b038381166001600160a01b0319831681178455604051919092169283917f8be0079c531659141344cd1fd0a4f28419497f9722a3daafe3b4186f6b6457e09190a35050565b80356001600160a01b038116811461113057600080fd5b919050565b6000806040838503121561114857600080fd5b8235915061115860208401611119565b90509250929050565b60006020828403121561117357600080fd5b5035919050565b6000806040838503121561118d57600080fd5b82359150602083013580151581146111a457600080fd5b809150509250929050565b60008083601f8401126111c157600080fd5b50813567ffffffffffffffff8111156111d957600080fd5b602083019150836020828501011115610f9757600080fd5b803567ffffffffffffffff8116811461113057600080fd5b803563ffffffff8116811461113057600080fd5b600080600080600080600080600080600060e08c8e03121561123e57600080fd5b67ffffffffffffffff808d35111561125557600080fd5b6112628e8e358f016111af565b909c509a5060208d013581101561127857600080fd5b6112888e60208f01358f016111af565b909a50985060408d013581101561129e57600080fd5b6112ae8e60408f01358f016111af565b909850965060608d01358110156112c457600080fd5b506112d58d60608e01358e016111af565b90955093506112e660808d016111f1565b92506112f460a08d01611209565b915061130260c08d01611209565b90509295989b509295989b9093969950565b6000815180845260005b8181101561133a5760208185018101518683018201520161131e565b506000602082860101526020601f19601f83011685010191505092915050565b6001600160a01b038d1681526101806020820181905260009061137f8382018f611314565b90508281036040840152611393818e611314565b905082810360608401526113a7818d611314565b905082810360808401526113bb818c611314565b91505067ffffffffffffffff891660a08301526113e060c083018963ffffffff169052565b63ffffffff871660e0830152856101008301528461012083015261140961014083018515159052565b8215156101608301529d9c50505050505050505050505050565b60006020828403121561143557600080fd5b61143e82611119565b9392505050565b634e487b7160e01b600052601160045260246000fd5b60006001820161146d5761146d611445565b5060010190565b634e487b7160e01b600052604160045260246000fd5b600181811c9082168061149e57607f821691505b6020821081036114be57634e487b7160e01b600052602260045260246000fd5b50919050565b601f82111561150e57600081815260208120601f850160051c810160208610156114eb5750805b601f850160051c820191505b8181101561150a578281556001016114f7565b5050505b505050565b67ffffffffffffffff83111561152b5761152b611474565b61153f83611539835461148a565b836114c4565b6000601f841160018114611573576000851561155b5750838201355b600019600387901b1c1916600186901b1783556115cd565b600083815260209020601f19861690835b828110156115a45786850135825560209485019460019092019101611584565b50868210156115c15760001960f88860031b161c19848701351681555b505060018560011b0183555b5050505050565b81835281816020850137506000828201602090810191909152601f909101601f19169091010190565b60c08152600061161160c083018b8d6115d4565b8281036020840152611624818a8c6115d4565b9050828103604084015261163981888a6115d4565b67ffffffffffffffff969096166060840152505063ffffffff9283166080820152911660a0909101529695505050505050565b8082018082111561167f5761167f611445565b92915050565b808202811582820484141761167f5761167f611445565b6000826116b957634e487b7160e01b600052601260045260246000fd5b500490565b8181038181111561167f5761167f61144556fea26469706673582212208a7e2791109898131261a23137c909f63d51fb9ca95e649b8d9cf2fc816c71ff64736f6c63430008140033",
  "linkReferences": {},
  "deployedLinkReferences": {}
}