{
  "_format": "hh-sol-artifact-1",
  "contractName": "CruiseMode",
  "sourceName": "contracts/CruiseMode.sol",
  "abi": [
    {
      "inputs": [
        {
          "internalType": "address",
          "name": "initialOwner",
          "type": "address"
        },
        {
          "internalType": "address",
          "name": "treasuryAddress",
          "type": "address"
        }
      ],
      "stateMutability": "nonpayable",
      "type": "constructor"
    },
    {
      "inputs": [
        {
          "internalType": "address",
          "name": "owner",
          "type": "address"
        }
      ],
      "name": "OwnableInvalidOwner",
      "type": "error"
    },
    {
      "inputs": [
        {
          "internalType": "address",
          "name": "account",
          "type": "address"
        }
      ],
      "name": "OwnableUnauthorizedAccount",
      "type": "error"
    },
    {
      "anonymous": false,
      "inputs": [
        {
          "indexed": false,
          "internalType": "uint256",
          "name": "newEdgeBps",
          "type": "uint256"
        }
      ],
      "name": "HouseEdgeUpdated",
      "type": "event"
    },
    {
      "anonymous": false,
      "inputs": [
        {
          "indexed": true,
          "internalType": "address",
          "name": "previousOwner",
          "type": "address"
        },
        {
          "indexed": true,
          "internalType": "address",
          "name": "newOwner",
          "type": "address"
        }
      ],
      "name": "OwnershipTransferred",
      "type": "event"
    },
    {
      "anonymous": false,
      "inputs": [
        {
          "indexed": true,
          "internalType": "address",
          "name": "user",
          "type": "address"
        },
        {
          "indexed": false,
          "internalType": "uint256",
          "name": "amountWei",
          "type": "uint256"
        },
        {
          "indexed": false,
          "internalType": "uint32",
          "name": "lockSeconds",
          "type": "uint32"
        }
      ],
      "name": "Staked",
      "type": "event"
    },
    {
      "anonymous": false,
      "inputs": [
        {
          "indexed": false,
          "internalType": "address",
          "name": "newTreasury",
          "type": "address"
        }
      ],
      "name": "TreasuryUpdated",
      "type": "event"
    },
    {
      "anonymous": false,
      "inputs": [
        {
          "indexed": false,
          "internalType": "uint256",
          "name": "newTrendX100",
          "type": "uint256"
        }
      ],
      "name": "TrendUpdated",
      "type": "event"
    },
    {
      "anonymous": false,
      "inputs": [
        {
          "indexed": true,
          "internalType": "address",
          "name": "user",
          "type": "address"
        },
        {
          "indexed": false,
          "internalType": "uint256",
          "name": "payoutWei",
          "type": "uint256"
        },
        {
          "indexed": false,
          "internalType": "uint256",
          "name": "appliedX100",
          "type": "uint256"
        }
      ],
      "name": "Unstaked",
      "type": "event"
    },
    {
      "inputs": [
        {
          "internalType": "address",
          "name": "user",
          "type": "address"
        }
      ],
      "name": "canUnstake",
      "outputs": [
        {
          "internalType": "bool",
          "name": "",
          "type": "bool"
        }
      ],
      "stateMutability": "view",
      "type": "function"
    },
    {
      "inputs": [],
      "name": "fund",
      "outputs": [],
      "stateMutability": "payable",
      "type": "function"
    },
    {
      "inputs": [],
      "name": "houseEdgeBps",
      "outputs": [
        {
          "internalType": "uint256",
          "name": "",
          "type": "uint256"
        }
      ],
      "stateMutability": "view",
      "type": "function"
    },
    {
      "inputs": [],
      "name": "owner",
      "outputs": [
        {
          "internalType": "address",
          "name": "",
          "type": "address"
        }
      ],
      "stateMutability": "view",
      "type": "function"
    },
    {
      "inputs": [
        {
          "internalType": "address",
          "name": "user",
          "type": "address"
        }
      ],
      "name": "previewPayout",
      "outputs": [
        {
          "internalType": "uint256",
          "name": "payoutWei",
          "type": "uint256"
        },
        {
          "internalType": "uint256",
          "name": "appliedX100",
          "type": "uint256"
        }
      ],
      "stateMutability": "view",
      "type": "function"
    },
    {
      "inputs": [],
      "name": "renounceOwnership",
      "outputs": [],
      "stateMutability": "nonpayable",
      "type": "function"
    },
    {
      "inputs": [
        {
          "internalType": "uint256",
          "name": "newEdgeBps",
          "type": "uint256"
        }
      ],
      "name": "setHouseEdge",
      "outputs": [],
      "stateMutability": "nonpayable",
      "type": "function"
    },
    {
      "inputs": [
        {
          "internalType": "address",
          "name": "newTreasury",
          "type": "address"
        }
      ],
      "name": "setTreasury",
      "outputs": [],
      "stateMutability": "nonpayable",
      "type": "function"
    },
    {
      "inputs": [
        {
          "internalType": "uint256",
          "name": "newTrendX100",
          "type": "uint256"
        }
      ],
      "name": "setTrend",
      "outputs": [],
      "stateMutability": "nonpayable",
      "type": "function"
    },
    {
      "inputs": [
        {
          "internalType": "uint32",
          "name": "lockSeconds",
          "type": "uint32"
        }
      ],
      "name": "stake",
      "outputs": [],
      "stateMutability": "payable",
      "type": "function"
    },
    {
      "inputs": [
        {
          "internalType": "address",
          "name": "",
          "type": "address"
        }
      ],
      "name": "stakes",
      "outputs": [
        {
          "internalType": "uint256",
          "name": "amountWei",
          "type": "uint256"
        },
        {
          "internalType": "uint64",
          "name": "startTs",
          "type": "uint64"
        },
        {
          "internalType": "uint32",
          "name": "lockSeconds",
          "type": "uint32"
        },
        {
          "internalType": "bool",
          "name": "active",
          "type": "bool"
        }
      ],
      "stateMutability": "view",
      "type": "function"
    },
    {
      "inputs": [
        {
          "internalType": "address",
          "name": "newOwner",
          "type": "address"
        }
      ],
      "name": "transferOwnership",
      "outputs": [],
      "stateMutability": "nonpayable",
      "type": "function"
    },
    {
      "inputs": [],
      "name": "treasury",
      "outputs": [
        {
          "internalType": "address",
          "name": "",
          "type": "address"
        }
      ],
      "stateMutability": "view",
      "type": "function"
    },
    {
      "inputs": [],
      "name": "trendX100",
      "outputs": [
        {
          "internalType": "uint256",
          "name": "",
          "type": "uint256"
        }
      ],
      "stateMutability": "view",
      "type": "function"
    },
    {
      "inputs": [],
      "name": "unstake",
      "outputs": [],
      "stateMutability": "nonpayable",
      "type": "function"
    }
  ],
  "bytecode": "0x608060405260c8600255606460045534801561001a57600080fd5b50604051610ce0380380610ce083398101604081905261003991610148565b816001600160a01b03811661006957604051631e4fbdf760e01b8152600060048201526024015b60405180910390fd5b610072816100dc565b506001600160a01b0381166100b65760405162461bcd60e51b815260206004820152600a602482015269074726561737572793d360b41b6044820152606401610060565b600380546001600160a01b0319166001600160a01b03929092169190911790555061017b565b600080546001600160a01b038381166001600160a01b0319831681178455604051919092169283917f8be0079c531659141344cd1fd0a4f28419497f9722a3daafe3b4186f6b6457e09190a35050565b80516001600160a01b038116811461014357600080fd5b919050565b6000806040838503121561015b57600080fd5b6101648361012c565b91506101726020840161012c565b90509250929050565b610b568061018a6000396000f3fe6080604052600436106100e75760003560e01c80637fcfb7c21161008a578063acd1ff6611610059578063acd1ff66146102dd578063b60d4288146101b8578063f0f44260146102f3578063f2fde38b1461031357600080fd5b80637fcfb7c21461025c57806385f4498b1461026f5780638668d36b1461029f5780638da5cb5b146102bf57600080fd5b80634e2a0af5116100c65780634e2a0af5146101ba57806361d027b3146101ef5780636cd0f10214610227578063715018a61461024757600080fd5b8062998421146100ec57806316934fc4146101155780632def6620146101a3575b600080fd5b3480156100f857600080fd5b5061010260025481565b6040519081526020015b60405180910390f35b34801561012157600080fd5b5061016d610130366004610a36565b6001602081905260009182526040909120805491015467ffffffffffffffff811690600160401b810463ffffffff1690600160601b900460ff1684565b6040805194855267ffffffffffffffff909316602085015263ffffffff909116918301919091521515606082015260800161010c565b3480156101af57600080fd5b506101b8610333565b005b3480156101c657600080fd5b506101da6101d5366004610a36565b6104d0565b6040805192835260208301919091520161010c565b3480156101fb57600080fd5b5060035461020f906001600160a01b031681565b6040516001600160a01b03909116815260200161010c565b34801561023357600080fd5b506101b8610242366004610a66565b61059b565b34801561025357600080fd5b506101b8610621565b6101b861026a366004610a7f565b610635565b34801561027b57600080fd5b5061028f61028a366004610a36565b6107bd565b604051901515815260200161010c565b3480156102ab57600080fd5b506101b86102ba366004610a66565b610858565b3480156102cb57600080fd5b506000546001600160a01b031661020f565b3480156102e957600080fd5b5061010260045481565b3480156102ff57600080fd5b506101b861030e366004610a36565b6108e2565b34801561031f57600080fd5b506101b861032e366004610a36565b61097b565b61033c336107bd565b6103765760405162461bcd60e51b81526020600482015260066024820152651b1bd8dad95960d21b60448201526064015b60405180910390fd5b600080610382336104d0565b3360009081526001602081905260409091209081015492945090925090600160601b900460ff1680156103b55750805415155b6103ec5760405162461bcd60e51b81526020600482015260086024820152676e6f207374616b6560c01b604482015260640161036d565b60018101805460008084556cffffffffffffffffffffffffff19909116909155604051339085908381818185875af1925050503d806000811461044b576040519150601f19603f3d011682016040523d82523d6000602084013e610450565b606091505b505090508061048f5760405162461bcd60e51b815260206004820152600b60248201526a1c185e5bdd5d0819985a5b60aa1b604482015260640161036d565b604080518581526020810185905233917f7fc4727e062e336010f2c282598ef5f14facb3de68cf8195c2f23e1454b2b74e910160405180910390a250505050565b6001600160a01b038116600090815260016020818152604080842081516080810183528154815293015467ffffffffffffffff811692840192909252600160401b820463ffffffff1690830152600160601b900460ff161515606082018190528291906105435750600093849350915050565b60045491506000606483836000015161055c9190610abb565b6105669190610ad8565b905060006127106002548361057b9190610abb565b6105859190610ad8565b90506105918183610afa565b9450505050915091565b6105a36109b9565b6103e88111156105e55760405162461bcd60e51b815260206004820152600d60248201526c0cac8ceca40e8dede40d0d2ced609b1b604482015260640161036d565b60028190556040518181527f5082c314f0d5d410c0175820fe02f58a21198fde20ddb6e65c96825cadab67a8906020015b60405180910390a150565b6106296109b9565b61063360006109e6565b565b600034116106705760405162461bcd60e51b81526020600482015260086024820152676e6f2076616c756560c01b604482015260640161036d565b620151808163ffffffff1610158015610692575062093a808163ffffffff1611155b6106ca5760405162461bcd60e51b81526020600482015260096024820152681b1bd8dac80c4b4dd960ba1b604482015260640161036d565b33600090815260016020819052604090912090810154600160601b900460ff16156107285760405162461bcd60e51b815260206004820152600e60248201526d185b1c9958591e481cdd185ad95960921b604482015260640161036d565b3480825560018201805460ff60601b1963ffffffff8616600160401b026bffffffffffffffffffffffff1990921667ffffffffffffffff4216179190911716600160601b17905560405133917f1186a0fd4b6c8a1f60c379695fa5433d9528920b68d49c541a722a287e5de578916107b19190869091825263ffffffff16602082015260400190565b60405180910390a25050565b6001600160a01b038116600090815260016020818152604080842081516080810183528154815293015467ffffffffffffffff811692840192909252600160401b820463ffffffff1690830152600160601b900460ff1615156060820181905261082a5750600092915050565b806040015163ffffffff16816020015167ffffffffffffffff1661084e9190610b0d565b4210159392505050565b6108606109b9565b60328110158015610873575061012c8111155b6108ad5760405162461bcd60e51b815260206004820152600b60248201526a7472656e642072616e676560a81b604482015260640161036d565b60048190556040518181527f3a814445f3c9816b6cefd0cfe31c117d9cad6ef7249ed6bf31c940aaab0979cb90602001610616565b6108ea6109b9565b6001600160a01b03811661092d5760405162461bcd60e51b815260206004820152600a602482015269074726561737572793d360b41b604482015260640161036d565b600380546001600160a01b0319166001600160a01b0383169081179091556040519081527f7dae230f18360d76a040c81f050aa14eb9d6dc7901b20fc5d855e2a20fe814d190602001610616565b6109836109b9565b6001600160a01b0381166109ad57604051631e4fbdf760e01b81526000600482015260240161036d565b6109b6816109e6565b50565b6000546001600160a01b031633146106335760405163118cdaa760e01b815233600482015260240161036d565b600080546001600160a01b038381166001600160a01b0319831681178455604051919092169283917f8be0079c531659141344cd1fd0a4f28419497f9722a3daafe3b4186f6b6457e09190a35050565b600060208284031215610a4857600080fd5b81356001600160a01b0381168114610a5f57600080fd5b9392505050565b600060208284031215610a7857600080fd5b5035919050565b600060208284031215610a9157600080fd5b813563ffffffff81168114610a5f57600080fd5b634e487b7160e01b600052601160045260246000fd5b8082028115828204841417610ad257610ad2610aa5565b92915050565b600082610af557634e487b7160e01b600052601260045260246000fd5b500490565b81810381811115610ad257610ad2610aa5565b80820180821115610ad257610ad2610aa556fea264697066735822122001dd78677963a5851c41eabbae377b079e06887fc3afb161ed48ff246bc4ca9664736f6c63430008140033",
  "linkReferences": {},
  "deployedLinkReferences": {}
}