{
  "_format": "hh-sol-artifact-1",
  "contractName": "AviatorGame",
  "sourceName": "contracts/AviatorGame.sol",
  "abi": [
    {
      "inputs": [
        {
          "internalType": "address",
          "name": "initialOwner",
          "type": "address"
        },
        {
          "internalType": "address",
          "name": "treasuryAddress",
          "type": "address"
        }
      ],
      "stateMutability": "nonpayable",
      "type": "constructor"
    },
    {
      "inputs": [
        {
          "internalType": "address",
          "name": "owner",
          "type": "address"
        }
      ],
      "name": "OwnableInvalidOwner",
      "type": "error"
    },
    {
      "inputs": [
        {
          "internalType": "address",
          "name": "account",
          "type": "address"
        }
      ],
      "name": "OwnableUnauthorizedAccount",
      "type": "error"
    },
    {
      "anonymous": false,
      "inputs": [
        {
          "indexed": true,
          "internalType": "address",
          "name": "player",
          "type": "address"
        },
        {
          "indexed": true,
          "internalType": "uint256",
          "name": "roundId",
          "type": "uint256"
        },
        {
          "indexed": false,
          "internalType": "uint256",
          "name": "amountWei",
          "type": "uint256"
        }
      ],
      "name": "BetPlaced",
      "type": "event"
    },
    {
      "anonymous": false,
      "inputs": [
        {
          "indexed": true,
          "internalType": "address",
          "name": "player",
          "type": "address"
        },
        {
          "indexed": true,
          "internalType": "uint256",
          "name": "roundId",
          "type": "uint256"
        },
        {
          "indexed": false,
          "internalType": "uint256",
          "name": "targetX100",
          "type": "uint256"
        },
        {
          "indexed": false,
          "internalType": "uint256",
          "name": "payoutWei",
          "type": "uint256"
        }
      ],
      "name": "CashOut",
      "type": "event"
    },
    {
      "anonymous": false,
      "inputs": [
        {
          "indexed": false,
          "internalType": "uint256",
          "name": "newHouseEdgeBps",
          "type": "uint256"
        }
      ],
      "name": "HouseEdgeUpdated",
      "type": "event"
    },
    {
      "anonymous": false,
      "inputs": [
        {
          "indexed": true,
          "internalType": "address",
          "name": "previousOwner",
          "type": "address"
        },
        {
          "indexed": true,
          "internalType": "address",
          "name": "newOwner",
          "type": "address"
        }
      ],
      "name": "OwnershipTransferred",
      "type": "event"
    },
    {
      "anonymous": false,
      "inputs": [
        {
          "indexed": false,
          "internalType": "address",
          "name": "feed",
          "type": "address"
        }
      ],
      "name": "PriceFeedUpdated",
      "type": "event"
    },
    {
      "anonymous": false,
      "inputs": [
        {
          "indexed": false,
          "internalType": "uint256",
          "name": "baseX100",
          "type": "uint256"
        },
        {
          "indexed": false,
          "internalType": "uint256",
          "name": "factorPerPct",
          "type": "uint256"
        },
        {
          "indexed": false,
          "internalType": "uint256",
          "name": "maxMultiplierX100",
          "type": "uint256"
        },
        {
          "indexed": false,
          "internalType": "uint256",
          "name": "minCashoutX100",
          "type": "uint256"
        }
      ],
      "name": "RiskParamsUpdated",
      "type": "event"
    },
    {
      "anonymous": false,
      "inputs": [
        {
          "indexed": true,
          "internalType": "uint256",
          "name": "roundId",
          "type": "uint256"
        },
        {
          "indexed": false,
          "internalType": "uint256",
          "name": "crashMultiplierX100",
          "type": "uint256"
        }
      ],
      "name": "RoundClosed",
      "type": "event"
    },
    {
      "anonymous": false,
      "inputs": [
        {
          "indexed": true,
          "internalType": "uint256",
          "name": "roundId",
          "type": "uint256"
        }
      ],
      "name": "RoundOpened",
      "type": "event"
    },
    {
      "anonymous": false,
      "inputs": [
        {
          "indexed": false,
          "internalType": "address",
          "name": "newTreasury",
          "type": "address"
        }
      ],
      "name": "TreasuryUpdated",
      "type": "event"
    },
    {
      "inputs": [],
      "name": "baseX100",
      "outputs": [
        {
          "internalType": "uint256",
          "name": "",
          "type": "uint256"
        }
      ],
      "stateMutability": "view",
      "type": "function"
    },
    {
      "inputs": [
        {
          "internalType": "address",
          "name": "",
          "type": "address"
        }
      ],
      "name": "bets",
      "outputs": [
        {
          "internalType": "uint256",
          "name": "amountWei",
          "type": "uint256"
        },
        {
          "internalType": "bool",
          "name": "active",
          "type": "bool"
        }
      ],
      "stateMutability": "view",
      "type": "function"
    },
    {
      "inputs": [],
      "name": "bettingOpen",
      "outputs": [
        {
          "internalType": "bool",
          "name": "",
          "type": "bool"
        }
      ],
      "stateMutability": "view",
      "type": "function"
    },
    {
      "inputs": [
        {
          "internalType": "uint256",
          "name": "targetX100",
          "type": "uint256"
        }
      ],
      "name": "cashOut",
      "outputs": [],
      "stateMutability": "nonpayable",
      "type": "function"
    },
    {
      "inputs": [
        {
          "internalType": "uint256",
          "name": "volatilityBps",
          "type": "uint256"
        }
      ],
      "name": "closeAndSetCrash",
      "outputs": [],
      "stateMutability": "nonpayable",
      "type": "function"
    },
    {
      "inputs": [],
      "name": "crashMultiplierX100",
      "outputs": [
        {
          "internalType": "uint256",
          "name": "",
          "type": "uint256"
        }
      ],
      "stateMutability": "view",
      "type": "function"
    },
    {
      "inputs": [],
      "name": "currentRoundId",
      "outputs": [
        {
          "internalType": "uint256",
          "name": "",
          "type": "uint256"
        }
      ],
      "stateMutability": "view",
      "type": "function"
    },
    {
      "inputs": [],
      "name": "factorPerPct",
      "outputs": [
        {
          "internalType": "uint256",
          "name": "",
          "type": "uint256"
        }
      ],
      "stateMutability": "view",
      "type": "function"
    },
    {
      "inputs": [],
      "name": "forfeitOnCrash",
      "outputs": [],
      "stateMutability": "nonpayable",
      "type": "function"
    },
    {
      "inputs": [],
      "name": "fund",
      "outputs": [],
      "stateMutability": "payable",
      "type": "function"
    },
    {
      "inputs": [],
      "name": "houseEdgeBps",
      "outputs": [
        {
          "internalType": "uint256",
          "name": "",
          "type": "uint256"
        }
      ],
      "stateMutability": "view",
      "type": "function"
    },
    {
      "inputs": [],
      "name": "maxMultiplierX100",
      "outputs": [
        {
          "internalType": "uint256",
          "name": "",
          "type": "uint256"
        }
      ],
      "stateMutability": "view",
      "type": "function"
    },
    {
      "inputs": [],
      "name": "minCashoutX100",
      "outputs": [
        {
          "internalType": "uint256",
          "name": "",
          "type": "uint256"
        }
      ],
      "stateMutability": "view",
      "type": "function"
    },
    {
      "inputs": [],
      "name": "openNextRound",
      "outputs": [],
      "stateMutability": "nonpayable",
      "type": "function"
    },
    {
      "inputs": [],
      "name": "owner",
      "outputs": [
        {
          "internalType": "address",
          "name": "",
          "type": "address"
        }
      ],
      "stateMutability": "view",
      "type": "function"
    },
    {
      "inputs": [],
      "name": "placeBet",
      "outputs": [],
      "stateMutability": "payable",
      "type": "function"
    },
    {
      "inputs": [],
      "name": "priceFeed",
      "outputs": [
        {
          "internalType": "contract AggregatorV3Interface",
          "name": "",
          "type": "address"
        }
      ],
      "stateMutability": "view",
      "type": "function"
    },
    {
      "inputs": [],
      "name": "renounceOwnership",
      "outputs": [],
      "stateMutability": "nonpayable",
      "type": "function"
    },
    {
      "inputs": [],
      "name": "roundStartPrice",
      "outputs": [
        {
          "internalType": "int256",
          "name": "",
          "type": "int256"
        }
      ],
      "stateMutability": "view",
      "type": "function"
    },
    {
      "inputs": [],
      "name": "roundStartTs",
      "outputs": [
        {
          "internalType": "uint256",
          "name": "",
          "type": "uint256"
        }
      ],
      "stateMutability": "view",
      "type": "function"
    },
    {
      "inputs": [
        {
          "internalType": "uint256",
          "name": "newHouseEdgeBps",
          "type": "uint256"
        }
      ],
      "name": "setHouseEdge",
      "outputs": [],
      "stateMutability": "nonpayable",
      "type": "function"
    },
    {
      "inputs": [
        {
          "internalType": "address",
          "name": "aggregator",
          "type": "address"
        }
      ],
      "name": "setPriceFeed",
      "outputs": [],
      "stateMutability": "nonpayable",
      "type": "function"
    },
    {
      "inputs": [
        {
          "internalType": "uint256",
          "name": "newBaseX100",
          "type": "uint256"
        },
        {
          "internalType": "uint256",
          "name": "newFactorPerPct",
          "type": "uint256"
        },
        {
          "internalType": "uint256",
          "name": "newMaxMultiplierX100",
          "type": "uint256"
        },
        {
          "internalType": "uint256",
          "name": "newMinCashoutX100",
          "type": "uint256"
        }
      ],
      "name": "setRiskParams",
      "outputs": [],
      "stateMutability": "nonpayable",
      "type": "function"
    },
    {
      "inputs": [
        {
          "internalType": "address",
          "name": "newTreasury",
          "type": "address"
        }
      ],
      "name": "setTreasury",
      "outputs": [],
      "stateMutability": "nonpayable",
      "type": "function"
    },
    {
      "inputs": [
        {
          "internalType": "address",
          "name": "newOwner",
          "type": "address"
        }
      ],
      "name": "transferOwnership",
      "outputs": [],
      "stateMutability": "nonpayable",
      "type": "function"
    },
    {
      "inputs": [],
      "name": "treasury",
      "outputs": [
        {
          "internalType": "address",
          "name": "",
          "type": "address"
        }
      ],
      "stateMutability": "view",
      "type": "function"
    }
  ],
  "bytecode": "0x608060405260c860065560646009556014600a55611388600b556082600c553480156200002b57600080fd5b506040516200162a3803806200162a8339810160408190526200004e916200025f565b816001600160a01b0381166200007f57604051631e4fbdf760e01b8152600060048201526024015b60405180910390fd5b6200008a81620000fd565b506001600160a01b038116620000d05760405162461bcd60e51b815260206004820152600a602482015269074726561737572793d360b41b604482015260640162000076565b600780546001600160a01b0319166001600160a01b038316179055620000f56200014d565b50506200032c565b600080546001600160a01b038381166001600160a01b0319831681178455604051919092169283917f8be0079c531659141344cd1fd0a4f28419497f9722a3daafe3b4186f6b6457e09190a35050565b600180600082825462000161919062000297565b909155505060006002556003805460ff19166001179055426004556008546001600160a01b0316156200020e5760085460408051633fabe5a360e21b815290516000926001600160a01b03169163feaf968c9160048083019260a09291908290030181865afa158015620001d9573d6000803e3d6000fd5b505050506040513d601f19601f82011682018060405250810190620001ff9190620002d7565b50505060055550620002149050565b60006005555b6001546040517ff5d5acf597a5f9d06a24389ebea67f576c74da4d4a73b97a5dfac2452acad64790600090a2565b80516001600160a01b03811681146200025a57600080fd5b919050565b600080604083850312156200027357600080fd5b6200027e8362000242565b91506200028e6020840162000242565b90509250929050565b80820180821115620002b957634e487b7160e01b600052601160045260246000fd5b92915050565b80516001600160501b03811681146200025a57600080fd5b600080600080600060a08688031215620002f057600080fd5b620002fb86620002bf565b94506020860151935060408601519250606086015191506200032060808701620002bf565b90509295509295909350565b6112ee806200033c6000396000f3fe6080604052600436106101805760003560e01c80638da5cb5b116100d1578063dfa5b02f1161008a578063f2fde38b11610064578063f2fde38b14610416578063f90f456014610436578063fcee01a61461043e578063ff4f8e8f1461045357600080fd5b8063dfa5b02f146103cb578063ec67a8e2146103e0578063f0f44260146103f657600080fd5b80638da5cb5b1461034b5780639bd9cf16146103695780639cbe5efd1461037f578063b09419ac14610395578063b60d428814610250578063d7376af3146103ab57600080fd5b80635c7b79f51161013e578063715018a611610118578063715018a6146102aa578063724e78da146102bf578063741bef1a146102df57806389a78f1a146102ff57600080fd5b80635c7b79f51461023057806361d027b3146102525780636cd0f1021461028a57600080fd5b80629984211461018557806315b19770146101ae57806316e70fce146101d85780631bbfd67b146101ee5780633acfa74c1461020457806350263caf1461021a575b600080fd5b34801561019157600080fd5b5061019b60065481565b6040519081526020015b60405180910390f35b3480156101ba57600080fd5b506003546101c89060ff1681565b60405190151581526020016101a5565b3480156101e457600080fd5b5061019b600b5481565b3480156101fa57600080fd5b5061019b60045481565b34801561021057600080fd5b5061019b600a5481565b34801561022657600080fd5b5061019b600c5481565b34801561023c57600080fd5b5061025061024b36600461106e565b610473565b005b34801561025e57600080fd5b50600754610272906001600160a01b031681565b6040516001600160a01b0390911681526020016101a5565b34801561029657600080fd5b506102506102a536600461106e565b610756565b3480156102b657600080fd5b506102506107dc565b3480156102cb57600080fd5b506102506102da366004611087565b6107f0565b3480156102eb57600080fd5b50600854610272906001600160a01b031681565b34801561030b57600080fd5b5061033661031a366004611087565b600d602052600090815260409020805460019091015460ff1682565b604080519283529015156020830152016101a5565b34801561035757600080fd5b506000546001600160a01b0316610272565b34801561037557600080fd5b5061019b60025481565b34801561038b57600080fd5b5061019b60015481565b3480156103a157600080fd5b5061019b60055481565b3480156103b757600080fd5b506102506103c63660046110b7565b610846565b3480156103d757600080fd5b50610250610969565b3480156103ec57600080fd5b5061019b60095481565b34801561040257600080fd5b50610250610411366004611087565b610a48565b34801561042257600080fd5b50610250610431366004611087565b610ae1565b610250610b1f565b34801561044a57600080fd5b50610250610c3a565b34801561045f57600080fd5b5061025061046e36600461106e565b610c8b565b60035460ff16156104b85760405162461bcd60e51b815260206004820152600a602482015269726f756e64206c69766560b01b60448201526064015b60405180910390fd5b6000600254116104f95760405162461bcd60e51b815260206004820152600c60248201526b1b9bc818dc985cda081e595d60a21b60448201526064016104af565b336000908152600d60205260409020600181015460ff166105455760405162461bcd60e51b81526020600482015260066024820152651b9bc818995d60d21b60448201526064016104af565b600c54821015801561055957506002548211155b6105925760405162461bcd60e51b815260206004820152600a602482015269189859081d185c99d95d60b21b60448201526064016104af565b600060648383600001546105a691906110ff565b6105b09190611132565b90506000612710600654836105c591906110ff565b6105cf9190611132565b905060006105dd8284611146565b60018501805460ff19169055600085559050811561068a576007546040516000916001600160a01b03169084908381818185875af1925050503d8060008114610642576040519150601f19603f3d011682016040523d82523d6000602084013e610647565b606091505b50509050806106885760405162461bcd60e51b815260206004820152600d60248201526c199959481cd95b990819985a5b609a1b60448201526064016104af565b505b604051600090339083908381818185875af1925050503d80600081146106cc576040519150601f19603f3d011682016040523d82523d6000602084013e6106d1565b606091505b50509050806107105760405162461bcd60e51b815260206004820152600b60248201526a1c185e5bdd5d0819985a5b60aa1b60448201526064016104af565b600154604080518881526020810185905233917f3d11e49d17dc6f1c19377a813db1fc78fa3b3f0324051794e9a361b5b7e434c0910160405180910390a3505050505050565b61075e610f03565b6103e88111156107a05760405162461bcd60e51b815260206004820152600d60248201526c0cac8ceca40e8dede40d0d2ced609b1b60448201526064016104af565b60068190556040518181527f5082c314f0d5d410c0175820fe02f58a21198fde20ddb6e65c96825cadab67a8906020015b60405180910390a150565b6107e4610f03565b6107ee6000610f30565b565b6107f8610f03565b600880546001600160a01b0319166001600160a01b0383169081179091556040519081527fe5b20b8497e4f3e2435ef9c20e2e26b47497ee13745ce1c681ad6640653119e6906020016107d1565b61084e610f03565b606484101561088d5760405162461bcd60e51b815260206004820152600b60248201526a0c4c2e6ca7c7a625c6060f60ab1b60448201526064016104af565b838210156108c95760405162461bcd60e51b81526020600482015260096024820152686d61783e3d6261736560b81b60448201526064016104af565b60658110156109075760405162461bcd60e51b815260206004820152600a6024820152690dad2dc7c7a625c6062f60b31b60448201526064016104af565b6009849055600a839055600b829055600c8190556040805185815260208101859052908101839052606081018290527f5d3c7b528485e17fe0314971648177a48225c729bb2270e5426ad03876eb08899060800160405180910390a150505050565b60035460ff16156109a95760405162461bcd60e51b815260206004820152600a602482015269726f756e64206c69766560b01b60448201526064016104af565b6000600254116109ea5760405162461bcd60e51b815260206004820152600c60248201526b1b9bc818dc985cda081e595d60a21b60448201526064016104af565b336000908152600d60205260409020600181015460ff16610a365760405162461bcd60e51b81526020600482015260066024820152651b9bc818995d60d21b60448201526064016104af565b60018101805460ff1916905560009055565b610a50610f03565b6001600160a01b038116610a935760405162461bcd60e51b815260206004820152600a602482015269074726561737572793d360b41b60448201526064016104af565b600780546001600160a01b0319166001600160a01b0383169081179091556040519081527f7dae230f18360d76a040c81f050aa14eb9d6dc7901b20fc5d855e2a20fe814d1906020016107d1565b610ae9610f03565b6001600160a01b038116610b1357604051631e4fbdf760e01b8152600060048201526024016104af565b610b1c81610f30565b50565b60035460ff16610b625760405162461bcd60e51b815260206004820152600e60248201526d18995d1d1a5b99c818db1bdcd95960921b60448201526064016104af565b60003411610b9d5760405162461bcd60e51b81526020600482015260086024820152676e6f2076616c756560c01b60448201526064016104af565b336000908152600d60205260409020600181015460ff1615610bee5760405162461bcd60e51b815260206004820152600a6024820152696265742065786973747360b01b60448201526064016104af565b348082556001808301805460ff191682179055546040519182529033907e1ecf1d0c4d22f324b3ecb9cdf0e5f772bc74ac104e6626f4b3845433d031059060200160405180910390a350565b610c42610f03565b60035460ff1615610c835760405162461bcd60e51b815260206004820152600b60248201526a18db1bdcd948199a5c9cdd60aa1b60448201526064016104af565b6107ee610f80565b610c93610f03565b60035460ff16610cd65760405162461bcd60e51b815260206004820152600e60248201526d185b1c9958591e4818db1bdcd95960921b60448201526064016104af565b6003805460ff191690556009546008546001600160a01b031615801590610cfe575060055415155b15610df15760085460408051633fabe5a360e21b815290516000926001600160a01b03169163feaf968c9160048083019260a09291908290030181865afa158015610d4d573d6000803e3d6000fd5b505050506040513d601f19601f82011682018060405250810190610d719190611178565b505060055491935090915060009050610d8a82846111c8565b90506000811215610da157610d9e816111ef565b90505b6000808313610db1576001610db3565b825b610dbf836127106110ff565b610dc99190611132565b9050600a5481610dd991906110ff565b600954610de6919061120b565b945050505050610e1b565b6064600a5483610e0191906110ff565b610e0b9190611132565b600954610e18919061120b565b90505b6000612af84442600154604051602001610e48939291909283526020830191909152604082015260600190565b6040516020818303038152906040528051906020012060001c610e6b919061121e565b90506000610e7b611388836111c8565b90506000620186a0610e8d8386611232565b610e979190611262565b610ea19085611290565b9050600c54811215610eb25750600c545b600b54811315610ec15750600b545b60028190556001546040518281527fc67dda8e11f1aa941c7e74466b1859a07a32f46aaf641d29b83be348424d93cd9060200160405180910390a25050505050565b6000546001600160a01b031633146107ee5760405163118cdaa760e01b81523360048201526024016104af565b600080546001600160a01b038381166001600160a01b0319831681178455604051919092169283917f8be0079c531659141344cd1fd0a4f28419497f9722a3daafe3b4186f6b6457e09190a35050565b6001806000828254610f92919061120b565b909155505060006002556003805460ff19166001179055426004556008546001600160a01b03161561103a5760085460408051633fabe5a360e21b815290516000926001600160a01b03169163feaf968c9160048083019260a09291908290030181865afa158015611008573d6000803e3d6000fd5b505050506040513d601f19601f8201168201806040525081019061102c9190611178565b505050600555506110409050565b60006005555b6001546040517ff5d5acf597a5f9d06a24389ebea67f576c74da4d4a73b97a5dfac2452acad64790600090a2565b60006020828403121561108057600080fd5b5035919050565b60006020828403121561109957600080fd5b81356001600160a01b03811681146110b057600080fd5b9392505050565b600080600080608085870312156110cd57600080fd5b5050823594602084013594506040840135936060013592509050565b634e487b7160e01b600052601160045260246000fd5b8082028115828204841417611116576111166110e9565b92915050565b634e487b7160e01b600052601260045260246000fd5b6000826111415761114161111c565b500490565b81810381811115611116576111166110e9565b805169ffffffffffffffffffff8116811461117357600080fd5b919050565b600080600080600060a0868803121561119057600080fd5b61119986611159565b94506020860151935060408601519250606086015191506111bc60808701611159565b90509295509295909350565b81810360008312801583831316838312821617156111e8576111e86110e9565b5092915050565b6000600160ff1b8201611204576112046110e9565b5060000390565b80820180821115611116576111166110e9565b60008261122d5761122d61111c565b500690565b80820260008212600160ff1b8414161561124e5761124e6110e9565b8181058314821517611116576111166110e9565b6000826112715761127161111c565b600160ff1b82146000198414161561128b5761128b6110e9565b500590565b80820182811260008312801582168215821617156112b0576112b06110e9565b50509291505056fea26469706673582212207ce12781f3fb54942f2691cd6b6a3eb55f18a7914cb2639c182a9bd9e6a2ac8864736f6c63430008140033",
  "linkReferences": {},
  "deployedLinkReferences": {}
}